:020000040800F2
:10000000D00A0020C5180008090500080B050008E3
:100010000D0500080F05000811050008000000008C
:1000200000000000000000000000000013050008B0
:100030001505000800000000170500081905000854
:10004000DF180008DF180008DF180008DF180008B4
:10005000DF180008DF180008DF180008DF180008A4
:10006000DF180008DF180008DF180008DF18000894
:10007000DF180008DF180008DF180008DF18000884
:10008000DF180008DF180008DF180008DF18000874
:10009000DF180008DF180008DF180008DF18000864
:1000A000DF180008DF180008DF180008DF18000854
:1000B000DF180008DF180008DF180008DF18000844
:1000C000DF180008DF180008DF180008DF18000834
:1000D000DF1800085D180008DF180008DF180008A6
:1000E000DF180008DF180008DF180008DFF810D05C
:1000F00006F096F800480047D5010008AFF30080ED
:10010000D00A00202DE9F04F0A24DFF89C93DFF895
:100110009CA303250B2685B0834604274FF00F08C8
:10012000584602F06BFD204605F0A1FF00224B4629
:1001300005F02EFF0022534605F0B8FE05F0B5FF8E
:100140000246DBA102A806F0B7F8DB49584603F0E7
:10015000A8FC02AB26225F21584603F0A3FBCDE9A1
:100160000065A3B21C220221584602F055FCCDE9DD
:10017000008759231A220021584602F0C0FCCFA361
:100180000F220921584603F08DFB584602F066FD08
:10019000641D552CC4DD00F00CFB58B1CAA33C22F1
:1001A0000921584603F07EFB584602F057FD41F204
:1001B00088300AE0C7A33C220B21584603F072FBAB
:1001C000584602F04BFD4FF4FA6005B0BDE8F04F21
:1001D00001F0D0BA1CB500264FF4A06002F05EFB1F
:1001E00001F09AFA00F044FA00F026FC00F0F6FC68
:1001F00000F05EFA05F0CEFDB84805F02BFEB748DA
:10020000FFF780FF00F01EFBDFF8D4A2DFF8D482F6
:10021000DFF8D492B54FB64D4FF4805BD9F820018A
:100220004C4601280CD0D8F83C0100287ED0D8F8E4
:1002300034010028FAD0D4F804010028F6D025E1D2
:10024000AC49A64803F02DFC00F03FFCAA49002071
:1002500054460A5C2254401CC0B20828F9D3A7486F
:100260000188090921724188090961728188090997
:10027000A172C1880909E1720189090921734089C4
:1002800000096073954802F0B9FC22789CA1684689
:1002900006F012F86B4630224021904803F002FB32
:1002A000627897A1684606F007F86B463E22402127
:1002B0008A4803F0F7FAA27891A1684605F0FCFF9E
:1002C0006B4637224721854803F0ECFAE2788CA18F
:1002D000684605F0F1FF6B46372239217F4803F06D
:1002E000E1FA227986A1684605F0E6FF6B461E22F8
:1002F00025217A4803F0D6FA627981A1684605F093
:10030000DBFF6B461E225B21744803F0CBFAA27917
:100310007BA1684605F0D0FF6B4608224C216F4850
:1003200003F0C0FAE27976A1684600E086E005F0C5
:10033000C3FF6B4608223221684803F0B3FA227AE1
:100340006FA1684605F0B8FF6B4608226A21634832
:1003500003F0A8FA627A6AA1684605F0ADFF0822A8
:100360006B4611465D4803F09DFAA27A64A1684687
:1003700005F0A2FF6B4614221E21584803F092FAA2
:10038000E27A5FA1684605F097FF6B4628221E219E
:10039000524803F087FA227B59A1684605F08CFF8A
:1003A0006B46142254214D4803F07CFA627B54A121
:1003B000684605F081FF6B4628225421474803F028
:1003C00071FA464802F04AFC0020215C401C31448E
:1003D000C0B2CEB20828F8D3EEB9207A6E281AD966
:1003E0008C2818D2607A6E2815D98C2813D2A07A5E
:1003F0006E2810D98C280ED2E07A6E280BD98C2862
:1004000009D2207B6E2806D98C2804D2607B6E2806
:1004100001D98C2808D30E21314800F040FA0E2172
:100420002F4800F03CFA20B15946364801F023FB32
:10043000F4E65946334801F01CFBEFE60A2001F0D0
:1004400099F9D8F83C11404641B9297807EBC10128
:1004500049782970D0F83C110029FBD0D0F834112C
:1004600041B9297807EBC10189782970D0F8341196
:100470000029FBD0D4F8040140B9287807EBC0006C
:10048000C0782870D4F804010028FBD0287807EB46
:10049000C00040686860114802F0B0FB686880479F
:1004A0000E4802F0DBFBB9E6004055400000594021
:1004B0002564252500000000686400084C4F414475
:1004C000494E472E2E2E00004E5246204552524F86
:1004D000520000004E5246204F4B000060010020A9
:1004E000440100200000224200802142240000201C
:1004F000000000207B7800081C0000205201002032
:1005000025640000000801407047FEE7FEE7FEE7B3
:10051000FEE7704770477047704700000CB5002138
:100520004B4801910091026842F4803202604FF41E
:10053000A063026802F400320092019A521C0192F8
:10054000009A12B9019A9A42F3D10268920333D504
:10055000012100913F490A6842F010020A600A68CE
:1005600022F003020A600A6842F002020A6041684F
:10057000416041684160416841F480614160416887
:1005800021F47C114160416841F4E8114160016847
:1005900041F08071016001688901FCD5416821F05A
:1005A00003014160416841F0020141604168C1F3CB
:1005B00081010229FAD10CBD00910CBD244810B56F
:1005C000016841F0010101604168234A1140416026
:1005D0000168224A11400160016821F48021016014
:1005E000416821F4FE0141604FF41F018160FFF773
:1005F00095FF1B494FF00060086010BD144910B50D
:100600004868184A10F00C03174803D0042B01D097
:10061000082B0AD002604968134AC1F30311121D66
:10062000515C0268CA40026010BD4A684B6802F41F
:1006300070124FF0020413F4803F04EB924202D098
:100640004B689B0301D5094B00E0064B5A43E1E799
:1006500000100240002002400000FFF8FFFFF6FEFD
:1006600008ED00E000127A000800002000093D00BB
:1006700038B50121042001F078FB4FF4C050ADF8EB
:10068000000010208DF803000120084C8DF80200B6
:100690006946204601F07FF9E114204601F0E9F9AE
:1006A000A114204601F0E7F938BD00000008014020
:1006B00038B50121082001F058FB4FF4A054ADF8E3
:1006C000004010208DF8030003209A4D8DF80200A1
:1006D0006946284601F05FF92146284601F0CBF92A
:1006E000E814ADF8000028208DF80300694628467C
:1006F00001F051F900F051F98F480021C0F8B01114
:100700000121C0F8A81138BD70B58B4C0E460021F0
:10071000C4F8A81104F5D47400F016F90546304663
:1007200000F012F901202060284670BD2DE9F0414B
:10073000814F002416460D46C7F8A84100F004F981
:10074000804605E015F8010B00F0FEF8641CE4B2E9
:10075000B442F7D30120C7F8A8014046BDE8F081B4
:1007600010B5754C0021C4F8A81104F5D47400F03C
:10077000EBF8FF2000F0E8F80121216010BD2DE921
:10078000F0416D4E002415468846C6F8A84100F099
:10079000DBF8074606E0FF2000F0D6F808F8040072
:1007A000641CE4B2AC42F6D30120C6F8A801384676
:1007B000D4E71CB561A10024D1E90001CDE9000115
:1007C000082000F02CF9052269463020FFF7AEFF23
:1007D000052269461020FFF7D2FF6846015D6629B1
:1007E00003D1641CE4B2052CF8D3052C01D0012000
:1007F0001CBD00201CBD10B54F4C0020C4F8B0013A
:10080000052250492A2004F5D874FFF78FFF0121F3
:100810002120FFF779FF01212220FFF775FF282112
:100820002520FFF771FF0E213120FFF76DFF2721F3
:100830002620FFF769FF0F212020FFF765FF012029
:10084000206010BD10B53C4C0020C4F8B0013D49FB
:100850000522491F302004F5D874FFF767FF0522F1
:1008600038492A20FFF762FF01212120FFF74CFFC2
:1008700001212220FFF748FF1A212420FFF744FF1F
:1008800028212520FFF740FF27212620FFF73CFFE6
:100890000E212020FFF738FF0120206010BD70B529
:1008A00006460D46082000F0BAF8234C0020C4F894
:1008B000B0012A463146A020FFF738FF0120C4F8D6
:1008C000B00100BFD4F82C010028FBD10720FFF7AE
:1008D00047FF044601462720FFF716FFE00605D52F
:1008E000FF21E120FFF710FF022070BDA00601D517
:1008F000002070BDFF2070BD70B506460D46082073
:1009000000F08DF80720FFF72BFF04460146272053
:10091000FFF7FAFE60060AD52A4631466120FFF746
:100920002EFFFF21E220FFF7EFFE002070BD012027
:1009300070BD0000000C01400080214266666666C2
:1009400066000000636400082DE9F04100250746B9
:100950002C46374E03E06D1CEDB2FA2D0FD8022164
:10096000304601F06EFF0028F5D039463546304656
:1009700001F023FF06E0641CE4B2FA2C02D9002047
:10098000BDE8F0810121284601F05BFF0028F2D08C
:10099000284601F014FFC0B2F2E770B586B001211D
:1009A000082001F0E2F90121880301F0E7F94FF492
:1009B0006045ADF8145018248DF8174003201D4EE3
:1009C0008DF8160005A9304600F0E5FF29463046AF
:1009D00001F04FF80020ADF80000ADF80800ADF8C8
:1009E0000C404FF48271ADF80400ADF80210ADF880
:1009F0000600ADF80E00711507200D4CADF80A1079
:100A0000ADF810006946204601F032FE0121204673
:100A100001F0ABFEFF20FFF797FF06B070BD044961
:100A20000A8822F038020A800A8802430A80704746
:100A300000380040000C0140F8B50121042001F00D
:100A400094F90121082001F090F90121102001F012
:100A50008CF94EF20100ADF8000048248DF80340F7
:100A60006946574800F097FF0220ADF80000554D49
:100A70008DF803406946284600F08DFF8020ADF8D0
:100A800000008DF803406946284600F084FF4020AE
:100A9000ADF800004C4E8DF803406946304600F03A
:100AA0007AFF4FF42070ADF800008DF803406946DE
:100AB000304600F070FFA815ADF800008DF8034037
:100AC0006946284600F067FFF8BD2DE9F0413F4F29
:100AD000D7F83C0101253E4C002618B384F800608D
:100AE000D7F8340138B36670DFF8E880D8F804012D
:100AF00050B3A670D7F8380178B3E670D8F81C0167
:100B0000474658B32671344FD7F8180138B3667189
:100B1000D7F81C01B0B3A671D7F8240198B3E671D9
:100B2000BDE8F0810A2000F025FED7F83C0100283E
:100B3000D6D12570D4E70A2000F01CFED7F8340186
:100B40000028D1D16570CFE70A2000F013FED8F855
:100B500004010028CED1A570CCE701E009E013E044
:100B60000A2000F007FED7F838010028C6D1E5704A
:100B7000C4E70A2000F0FEFDD7F81C010028C2D10E
:100B80002571C0E709E011E00A2000F0F3FDD7F875
:100B900018010028BCD16571BAE70A2000F0EAFD0F
:100BA000D7F81C010028B7D1A571B5E70A2000F0DD
:100BB000E1FDD7F824010028B2D1E571B0E70000CB
:100BC00000100140000C01400008014000002242DA
:100BD0001C000020008021420000214270B501214C
:100BE00092B0480201F0C1F80121042001F0BDF8E3
:100BF0000121084601F0B0F84FF4004001F04BF835
:100C000000248DF843403F20ADF8400003208DF8CC
:100C1000420010A9394800F0BEFE394E05230122DA
:100C20000021304601F020FB05230222012130463D
:100C300001F01AFB052303220221304601F014FBC8
:100C4000052304220321304601F00EFB05231A463A
:100C50000421304601F008FB0523062219463046E0
:100C600001F002FB4FF460200B94CDE90D0401204C
:100C70008DF831008DF8300006258DF83C500BA919
:100C8000304601F071FA1E4869464C3000908015DC
:100C900006901C480190301507908020CDE9044053
:100CA00020200890CDE90245C001CDE90904164C89
:100CB000204601F042FC0121204601F068FC0121A0
:100CC000304601F083FA0121304601F075FA3046D2
:100CD00001F08FFA3446204601F090FA0128FAD04C
:100CE000204601F092FA204601F094FA0128FAD049
:100CF0000121204601F095FA12B070BD00080140B4
:100D00000024014052010020080002407047704753
:100D10002DE9FF5F8346FE48018840880D090409DC
:100D2000284605F0B5F9FB4F00223B4605F0BEF81A
:100D300005F0DAF986B2204605F0AAF900223B4612
:100D400005F0B4F805F0D0F987B22A46F2A102A85E
:100D500005F0B2FA02AB11220521584602F0A2FDBD
:100D600003254FF00F08CDE90085532305222421E8
:100D7000584601F0C4FE4FF002094FF00B0ACDE9CE
:100D800000A9334607222621584601F045FE224697
:100D9000E1A102A805F090FA02AB312205215846E4
:100DA00002F080FDCDE900852422532311465846E8
:100DB00001F0A5FECDE900A926223B461146584682
:100DC00001F02AFEBDE8FF9F1CB5D449D44802F0CB
:100DD00068FED34802F040FE0121D14802F0ECFC4D
:100DE0000121CF4802F097FF03211020CDE9000137
:100DF0007F2301220021CA4801F00EFE0021C848CD
:100E000002F089FF0E22C7A31146C54802F04AFD31
:100E10000121C34802F07FFFC5A31E220E21C04856
:100E200002F040FDC4A32E220E21BD4802F03AFD7F
:100E300002B03D22BDE81040C2A30E21B84802F026
:100E400031BD1CB50121B64802F0B6FC0121B44801
:100E500002F061FF03211020CDE900017F23112260
:100E60000021AF4801F0D8FD0021AD4802F053FF4A
:100E7000AFA31E220E21AA4802F014FD0121A848AA
:100E800002F049FF0E22A7A31146A54802F00AFD71
:100E9000A9A32E220E21A24802F004FD02B03D2299
:100EA000BDE81040A7A30E219D4802F0FBBC1CB575
:100EB00001219B4802F080FC0121994802F02BFFA0
:100EC00003211020CDE900017F2321220021944835
:100ED00001F0A2FD0021924802F01DFF96A32E22F0
:100EE0000E218F4802F0DEFC01218D4802F013FF35
:100EF0000E228CA311468A4802F0D4FC8CA31E2239
:100F00000E21874802F0CEFC02B03D22BDE8104021
:100F10008CA30E21824802F0C5BC1CB5012180487B
:100F200002F04AFC01217E4802F0F5FE0321102068
:100F3000CDE900017F2330220021794801F06CFDCA
:100F40000021774802F0E7FE7EA33D220E2174487F
:100F500002F0A8FC0121724802F0DDFE0E2271A30E
:100F600011466F4802F09EFC71A31E220E216C48B0
:100F700002F098FC02B02E22BDE810406EA30E21B4
:100F8000674802F08FBC1CB50121654802F014FCD3
:100F90000121634802F0BFFE03211020CDE90001CA
:100FA0007F23012200215E4801F036FD00215C48CC
:100FB00002F0B1FE0E2265A31146594802F072FC00
:100FC0000121574802F0A7FE62A31E220E215448B9
:100FD00002F068FC62A32E220E21514802F062FC4E
:100FE00002B03D22BDE8104056A30E214C4802F04D
:100FF00059BC1CB501214A4802F0DEFB01214848DA
:1010000002F089FE03211020CDE900017F23112287
:101010000021434801F000FD0021414802F07BFE21
:101020004CA31E220E213E4802F03CFC01213C480C
:1010300002F071FE0E2245A31146394802F032FC3F
:1010400047A32E220E21364802F02CFC02B03D228E
:10105000BDE810403BA30E21314802F023BC1CB573
:1010600001212F4802F0A8FB01212D4802F053FE78
:1010700003211020CDE900017F23212200212848EF
:1010800001F0CAFC0021264802F045FE34A32E22BE
:101090000E21234802F006FC0121214802F03BFE0C
:1010A0000E222AA311461E4802F0FCFB29A31E2291
:1010B0000E211B4802F0F6FB02B03D22BDE81040B5
:1010C00020A30E21164802F0EDBB1CB501211448E7
:1010D00002F072FB0121124802F01DFE03211020D4
:1010E000CDE900017F23302200210D4801F094FC5E
:1010F00000210B4802F00FFE12A33D220E210848EA
:1011000002F0D0FB0121064802F005FE0FA32FE0FC
:10111000520100200000D43F25640000816E0008C9
:101120006001002048617264776172650000000010
:1011300053657474696E6700446576696365204918
:101140006E666F0072657475726E0000427574741D
:101150006F6E00004A6F79737469636B0000000062
:10116000506F74656E74696F6D6574657200000010
:101170000E221146FE4802F095FBAFF228031E2214
:101180000E21FB4802F08EFBAFF22C0302B02E22A0
:10119000BDE810400E21F64802F084BB1CB50121C9
:1011A000F34802F009FB0121F14802F0B4FD0321EC
:1011B0001020CDE900017F2301220021EC4801F03D
:1011C0002BFC0021EA4802F0A6FD0E22E9A31146FD
:1011D000E74802F067FB0121E54802F09CFDE6A329
:1011E0001E220E21E24802F05DFBE4A32E220E2116
:1011F000DF4802F057FBAFF2B40302B03D22BDE876
:1012000010400E21DA4802F04DBB1CB50121D84830
:1012100002F0D2FA0121D64802F07DFD0321102010
:10122000CDE900017F2311220021D14801F0F4FB18
:101230000021CF4802F06FFDCFA31E220E21CC4823
:1012400002F030FB0121CA4802F065FD0E22C9A35D
:101250001146C74802F026FBC8A32E220E21C4481F
:1012600002F020FBAFF2241302B03D22BDE8104093
:101270000E21BF4802F016BB1CB50121BC4802F08C
:101280009BFA0121BA4802F046FD03211020CDE966
:1012900000017F2321220021B54801F0BDFB002180
:1012A000B34802F038FDB5A32E220E21B04802F05B
:1012B000F9FA0121AE4802F02EFD0E22ADA311462F
:1012C000AB4802F0EFFAACA31E220E21A84802F0B0
:1012D000E9FAAFF2901302B03D22BDE810400E21B2
:1012E000A34802F0DFBA1CB50121A14802F064FA5C
:1012F00001219F4802F00FFD03211020CDE90001DC
:101300007F23302200219A4801F086FB0021984873
:1013100002F001FDAFF2D4133D220E21944802F0F9
:10132000C1FA0121924802F0F6FC0E2291A3114667
:101330008F4802F0B7FA90A31E220E218C4802F0CB
:10134000B1FA02B02E22BDE810408CA30E218848CD
:1013500002F0A8BA1CB50121854802F02DFA01213E
:10136000834802F0D8FC03211020CDE900017F233F
:10137000012200217E4801F04FFB00217C4802F051
:10138000CAFC0E227EA31146794802F08BFA012195
:10139000774802F0C0FC7DA31E220E21744802F0A3
:1013A00081FA7DA32E220E21714802F07BFAAFF262
:1013B0006C2302B03D22BDE810400E216C4802F0C3
:1013C00071BA1CB501216A4802F0F6F9012168489A
:1013D00002F0A1FC03211020CDE900017F2311229E
:1013E0000021634801F018FB0021614802F093FCE2
:1013F00066A31E220E215E4802F054FA01215C48C9
:1014000002F089FC0E225EA31146594802F04AFA06
:1014100061A32E220E21564802F044FAAFF2DC23DB
:1014200002B03D22BDE810400E21514802F03ABA08
:101430001CB501214E4802F0BFF901214C4802F0D1
:101440006AFC03211020CDE900017F232122002125
:10145000474801F0E1FA0021454802F05CFC4EA348
:101460002E220E21424802F01DFA0121404802F0CE
:1014700052FC0E2242A311463D4802F013FA43A348
:101480001E220E213A4802F00DFAAFF2483302B0A4
:101490003D22BDE810400E21354802F003BA1CB5CC
:1014A0000121334802F088F90121314802F033FC70
:1014B00003211020CDE900017F23302200212C4898
:1014C00001F0AAFA00212A4802F025FCAFF28C3381
:1014D0003D220E21264802F0E5F90121244802F0C0
:1014E0001AFC0E2226A31146214802F0DBF927A39D
:1014F0001E220E211E4802F0D5F902B02E22BDE8B0
:10150000104025A30E211A4802F0CCB9704770474D
:101510001748FFF7FDBB10B522A310220021144885
:1015200002F0C0F923A320220021114802F0BAF9E9
:1015300018A3302200210E4802F0B4F94022BDE881
:1015400010401FA300210A4802F0ACB910B515A342
:1015500010220021064802F0A5F91DA32022002137
:10156000034802F09FF930220AA30021004833E02B
:101570006001002031000000320000003300000054
:101580005769466920496E666F0000004350555FF9
:1015900054454D500000000054454D502648554DCF
:1015A000490000002A2A2A204D75736963202A2ADF
:1015B0002A00000057696E647948696C6C0000006D
:1015C000456E74657220746F2052657475726E007A
:1015D0004E657720426F790002F064F9AFF2200384
:1015E0004022BDE810400021314802F05BB910B53F
:1015F000AFF25003102200212D4802F053F92DA321
:10160000202200212A4802F04DF9AFF2780330225F
:101610000021274802F046F9AFF25C034022BDE802
:1016200010400021224802F03DB910B525A3102238
:1016300000211F4802F036F925A3202200211C4872
:1016400002F030F925A330220021194802F02AF9CE
:10165000AFF294034022BDE810400021144802F08C
:1016600021B9AFF2A40340220021114802F01AB9B7
:10167000AFF2B403402200210D4802F013B910B5B7
:1016800019490B4802F00DFA18A310221921084835
:1016900002F008F918A320222121054802F002F9DE
:1016A0003022BDE8104017A30121014802F0FAB82A
:1016B000600100204B696C6C2054686520526169A0
:1016C0006E0000005769464920696E666F00000091
:1016D000737369643A7878780000000070617373FE
:1016E00077643A78787800007A6B000857454C4365
:1016F0004F4D4520544F00004E5246204D454E550B
:1017000000000000454E54455220544F20434F4E98
:1017100054494E554500000010B56FF0040001F02B
:1017200002F9204820490068B0FBF1F0C1B21F481F
:1017300001EB41020170C2EBC1114FF6FF7202EAE8
:10174000C101418010BD1949097848434FF0E0219B
:10175000486100228A61086940F001000861086957
:10176000C30701D0C003FAD5086920F00100086161
:101770008A6170470D49498848434FF0E02148612C
:1017800000228A61086940F0010008610869C30706
:1017900001D0C003FAD5086920F0010008618A6110
:1017A000704700000800002000127A001401002099
:1017B000704740490A885206FCD53E4AC1B2121D04
:1017C0001180704770B5054686B0012144F20400CF
:1017D00000F0CBFA4FF40070ADF8100003248DF840
:1017E00012401820344E8DF8130004A9304600F042
:1017F000D2F83015ADF8100004208DF8130004A9BC
:10180000304600F0C8F825208DF814008DF81540FA
:101810008DF8164001208DF8170005A801F043F857
:101820000020ADF80400ADF80600ADF80800ADF8F2
:101830000C000C201F4CADF80A00009569462046AC
:1018400000F012FB012240F22551204600F089FBF6
:101850000121204600F07BFB06B070BD70B5154C31
:1018600040F22551204600F033FC00280ED02046DF
:1018700000F0C7FBC2B2114801880B0406D44C0427
:101880004FF0000306D50A2A01D0038070BD41F451
:1018900000410DE00D2A09D0C1F30D04084D491C8B
:1018A00089B22A550180C729EFD870BD41F4804123
:1018B000018070BD0038014000080140180100207F
:1018C000F40100200648804706480047FEE7FEE78F
:1018D000FEE7FEE7FEE7FEE7FEE7FEE7FEE7FEE7E0
:1018E000BD050008ED000008914910B5884206D1F9
:1018F0000121042000F04BFA002104203BE08D4937
:10190000884206D10121082000F041FA0021082078
:1019100031E08949884206D10121102000F037FAD0
:101920000021102027E08549884206D1012120208E
:1019300000F02DFA002120201DE08149884206D1C7
:101940000121402000F023FA0021402013E07D49CE
:10195000884206D10121802000F019FA0021802060
:1019600009E0794988420AD184150121204600F016
:101970000EFA00212046BDE8104000F008BA10BD64
:1019800010B50121084600F002FA0021BDE8104020
:10199000012000F0FCB9F0B5CA78002502F00F0371
:1019A000D20601D58A7813430A784FF00F0E12F051
:1019B000FF0F4FF001021DD0D0F800400F8802FA4F
:1019C00005F63740B74211D14FEA850C0EFA0CF7F5
:1019D00024EA070703FA0CF43C43CF78282F02D0FF
:1019E000482F02D002E0466100E006616D1C082D20
:1019F000E4D304600C88FF2C1ED944685FF0000615
:101A000006F1080702FA07F50F882F40AF420FD101
:101A10004FEA860C0EFA0CF7BC4303FA0CF73C4372
:101A2000CF78282F00D14561CF78482F00D10561AC
:101A3000761C082EE4D34460F0BD4FF6FF710180A0
:101A4000022181700421C170704702460020926813
:101A50000A4200D001207047806880B27047024679
:101A60000020D2680A4200D001207047C06880B2CE
:101A7000704701617047416170470AB10161704769
:101A800041617047C160704741F480328261816179
:101A900082618169806970472C4B10B51A684FF6D6
:101AA0008074224042EA00100843186010BD2849A3
:101AB000C8617047F0B5254C002801DAE36900E001
:101AC0006368420D120185B2C0F301579540C0F31F
:101AD0000346032F05D0C2020AD50322B240934326
:101AE00007E023F07062636823F07063636002E0D4
:101AF000AB4343F0706201B12A43002801DAE2618E
:101B0000F0BD6260F0BD10B58A0721F003040F49F3
:101B1000130F21440F228C689A4094438C608A688A
:101B2000984002438A6010BD0949C1F8DC00704743
:101B300000080140000C0140001001400014014069
:101B400000180140001C014000200140000001403D
:101B500000002042A448016841F001010160416891
:101B6000A24A114041600168A14A11400160016828
:101B700021F480210160416821F4FE0141604FF4AD
:101B80001F018160704798490A6822F480320A6018
:101B90000A6822F480220A60B0F5803F07D0B0F5D1
:101BA000802F03D1086840F4A020086070470868BF
:101BB00040F48030F9E70246002053098A49012B9E
:101BC0000AD0022B0AD0496A02F01F020123934077
:101BD0000B4200D0012070470968F5E7096AF3E776
:101BE00018B500204FF4A06400903120FFF7E3FF08
:101BF0000099491C0091A14201D00028F5D0312064
:101C0000FFF7D9FF002800D0012018BD76490A68E7
:101C100022F0F80242EAC000086070477549086087
:101C20007047714A5368084323F47C13184350608B
:101C300070477049086670476B4A516821F003018C
:101C40000143516070476848406800F00C007047DD
:101C5000654A516821F0F001014351607047624AC2
:101C6000516821F4E0610143516070475E494A6860
:101C700022F4605242EAC000486070475A4A002984
:101C8000517A01D0014300E08143517270475949B4
:101C9000C1F8D8007047544A516821F440410143CB
:101CA000516070475049002281F8202081F820209F
:101CB000012802D0042802D1052081F820007047B5
:101CC0004D490860704748490A6A02430A627047F2
:101CD000494944390860704730B543494A6812F0B1
:101CE0000C03464A03D0042B01D0082B21D00260FC
:101CF0004A680F23424C03EA1212A35C0268DA40DE
:101D000042604B68072505EA1323E35C22FA03F3DC
:101D100083604B6805EAD323E35CDA40C26049681C
:101D2000032303EA9131231F595CB2FBF1F10161F6
:101D300030BD4A684B6802F470124FF0020413F48D
:101D4000803F04EB924202D04B689B0301D52D4BA0
:101D500000E02A4B5A43CAE7234A0029516901D0BF
:101D6000014300E08143516170471F4A0029916996
:101D700001D0014300E08143916170471A4A002974
:101D8000D16901D0014300E08143D1617047164A17
:101D90000029D16801D0014300E08143D160704740
:101DA000114A0029116901D0014300E0814311610A
:101DB000704711494039086070470E49C864704740
:101DC0000949C87170470848416A41F08071416211
:101DD0007047054A0146002092680A4200D001205F
:101DE0007047014988727047001002400000FFF8F8
:101DF000FFFFF6FE000042428004424200127A00D9
:101E00001E01002000093D00C44910B588420AD1D6
:101E100001218C032046FFF7BAFF2046BDE81040A1
:101E20000021FFF7B4BFBE49884202D101214C0412
:101E300010E0BC49884202D101218C040AE0BA4971
:101E4000884202D10121CC0404E0B84988420AD179
:101E500001210C052046FFF7A3FF2046BDE81040F6
:101E60000021FFF79DBF10BD30B50446008A85B044
:101E70000D464CF6FF710840E98801432182A18993
:101E80004EF6F3100140A8882A8910436A890A4354
:101E90001043A081A08A4FF6FF410840A989014361
:101EA000A1826846FFF718FF9C48844201D103983D
:101EB00000E00298A189090400EBC00101EB0010C9
:101EC000296801D5490000E08900B0FBF1F06422E7
:101ED000B0FBF2F109010B096FF018056B4300EB41
:101EE0008300A3891D044FF0320306D503EBC00025
:101EF000B0FBF2F000F0070005E003EB0010B0FBD0
:101F0000F2F000F00F000843208105B030BD4FF41F
:101F10001651016000218180C18001810C22428123
:101F20008181704710B5038A4FF2FF0213400A887F
:101F30004C8822438C88C9880C4322431A4302826E
:101F400010BD0021018041808180C180704700293F
:101F5000818902D041F4005101E021F400518181D6
:101F6000704710B5C1F3421301F01F040121A140D5
:101F7000012B07D0022B07D01430002A026805D0AD
:101F80000A4304E00C30F8E71030F6E78A430260B9
:101F900010BD002A828A01D00A4300E08A4382826F
:101FA0007047028A22F00F020282028A0A430282EA
:101FB0007047828922F40062828182890A43828189
:101FC00070470029818902D041F0020101E021F02F
:101FD000020181817047028A22F020020282028A75
:101FE0000A43028270470029018A02D041F48041ED
:101FF00001E021F4804101827047C1F30801818032
:1020000070478088C0F308007047818941F0010162
:1020100081817047028BD2B20283028B42EA012196
:1020200001837047028B02F47F420283028B0A43D2
:10203000028370470029818A02D041F0200101E02B
:1020400021F02001818270470029818A02D041F06D
:10205000100101E021F01001818270470029818A7E
:1020600002D041F0080101E021F0080181827047AF
:102070000029818902D041F4004101E0C1F30E0141
:10208000818170470029818A02D041F4006101E01A
:1020900021F4006181827047828A22F004028282E8
:1020A000828A0A43828270470029818A02D041F0E5
:1020B000020101E021F00201818270470246002006
:1020C00012880A4200D001207047C943018070473E
:1020D00030B501F01F0201240025C1F3421304FAB8
:1020E00002F2012B0FD0022B0FD0838A4FEA11216D
:1020F0000088134204FA01F400EA040001D000B1A0
:102100000125284630BD8389F0E7038AEEE70A0AF5
:1021100001219140C943018070470000003801400F
:102120000044004000480040004C00400050004087
:10213000C54910B5884202D1012144150AE0C349BE
:10214000884202D10121041504E0C14988420AD124
:102150000121CC032046FFF71AFE2046BDE81040BF
:102160000021FFF714BE10BD10B54268B94B0C79C1
:102170001A400B6842EA0422134343608368B64A5C
:102180001340D1E9024222434C7943EA44031A4303
:102190008260C26A097C22F47002491EC9B242EA16
:1021A0000151C16210BD0021016001714171816066
:1021B000C1600121017470470029816802D041F09B
:1021C000010101E021F0010181607047002981686F
:1021D00002D041F4807101E021F480718160704788
:1021E000002A4268C9B201D00A4300E08A43426033
:1021F0007047816841F00801816070470146002006
:102200008968090700D501207047816841F0040101
:1022100081607047014600208968490700D5012088
:1022200070470029816802D041F4A00101E021F447
:10223000A00181607047014600208968490200D5ED
:10224000012070474268491E22F4604242EA41314F
:10225000416070470029416802D041F4006101E00B
:1022600021F400614160704770B5072409290AD93B
:10227000C568A1F10A0606EB4606B440A543B34083
:102280001D43C56007E0056901EB4106B440A54365
:10229000B3401D4305611F23072A09D2446B521E18
:1022A00002EB820293409C4391400C43446370BD17
:1022B0000D2A09D2046BD21F02EB820293409C4389
:1022C00091400C43046370BDC46A0D3A02EB820274
:1022D00093409C4391400C43C46270BD00298168C7
:1022E00002D041F4801101E021F480118160704737
:1022F000C06C80B2704754484C3000687047002969
:10230000416802D041F4806101E021F480614160C4
:1023100070470029416802D041F4805101E021F466
:10232000805141607047826822F4E0420A43826033
:1023300070470029816802D041F4004101E021F496
:102340000041816070470029816802D041F4021188
:1023500001E021F402118160704701460020896884
:10236000890200D50120704770B5072409290AD9D0
:10237000C568A1F10A0606EB4606B440A543B34082
:102380001D43C56007E0056901EB4106B440A54364
:10239000B3401D430561836BC3F30154121B921CB0
:1023A00002EB82041F22A2409343A1400B438363AC
:1023B00070BD826B491E22F4401242EA01518163D2
:1023C000704708B508440090026008BD08B508448D
:1023D00028300090006880B208BD42681F4B1A4048
:1023E0000A4342607047416282627047426822F04D
:1023F0001F020A43426070471349083100280868E9
:1024000002D040F4000001E020F4000008607047B2
:102410000246002012680A4200D001207047C943DA
:102420000160704710B50246002054680B0AC9B21B
:102430000C401168194202D0002C00D0012010BDC0
:102440006FEA11210160704700240140002801401B
:10245000003C0140FFFEF0FFFDF7F1FFFFFD3FFFF5
:1024600001684FF6FE721140016000210160416079
:102470008160C1606A496A4A0839904203D148685C
:1024800040F00F0006E0664A1432904204D14868DA
:1024900040F0F00048607047614A2832904203D112
:1024A000486840F47060F5E75D4A3C32904203D1E1
:1024B000486840F47040EDE7594A5032904203D1E9
:1024C000486840F47020E5E7554A6432904203D1F1
:1024D000486840F47000DDE7514A7832904203D1F9
:1024E000486840F07060D5E74E4A111F904203D112
:1024F000086840F00F0006E04A4A1432904204D1C6
:10250000086840F0F00008607047464A2832904260
:1025100003D1086840F47060F5E7424A3C329042CB
:1025200003D1086840F47040EDE73E4A50329042D3
:10253000EAD1086840F47020E5E730B5036847F653
:10254000F07293430C6A8A682243D1E904452C4314
:1025500022438C692243CC6922434C6A22438C6A11
:1025600022431A430260CA6842600A68826049686E
:10257000C16030BD0021016041608160C1600161C6
:1025800041618161C16101624162816270470029DC
:10259000016802D041F0010102E04FF6FE721140E5
:1025A00001607047002A026801D00A4300E08A43B4
:1025B0000260704741607047406880B270470146D2
:1025C0000020CA0002D5174A083A01E0144A083A26
:1025D00012680A4200D001207047C10003D511499A
:1025E000091F086070470E49083948607047014666
:1025F0000020CA0002D50B4A083A01E0084A083A0E
:1026000012680A4200D001207047C10003D5054975
:10261000091F086070470249083948607047000088
:102620000800024008040240994910B588420AD1C6
:10263000841401212046FFF7AAFB2046BDE8104084
:102640000021FFF7A4BB9349884202D10121041461
:1026500004E0914988420AD10121C4132046FFF7C2
:102660009FFB2046BDE810400021FFF799BB10BD3D
:1026700030B502884C8802F441530A88CD88224341
:102680008C882C4322430C8922434C8922438C8919
:102690002243CC8922431A430280828B22F40062B7
:1026A0008283098A018230BDF0B505460C460220BE
:1026B0000021AA8B85B001264FF240031A40AA835D
:1026C0002884AF8BA268022A27D0A08800B10226F6
:1026D0006846FFF701FBE1880098B1F5007F2DD037
:1026E0007101B0FBF1F000BF00EB8000A168400079
:1026F000B0FBF1F0401D80B20A21B0FBF1F000F018
:102700000101401A4FF6FF72C0F34F0002EA0121A7
:10271000821EFE2A01D302200021E28808430243E0
:102720002A8420886188A2890843A188114308432C
:10273000384340F40060A88305B0F0BD000AD3E739
:102740000021018041808180C1800181418181819E
:10275000C181072101827047002101804180818071
:10276000C18002228260818170470029018802D0E5
:1027700041F0400101E021F0400101807047002953
:10278000818B02D041F4806101E021F4806181837A
:102790007047090901238B40002A828899B201D031
:1027A0000A4300E08A4382807047002A828801D071
:1027B0000A4300E08A4382807047818170478089A4
:1027C0007047A1F57E420188FF3A02D041F4807142
:1027D00001E021F48071018070470029818802D0D6
:1027E00041F0040101E021F004018180704702887A
:1027F00022F40062028002880A4302807047018846
:1028000041F48051018070470029018802D041F4D1
:10281000005101E021F4005101807047012901D0ED
:10282000008B7047808A7047008A7047B1F5804FEF
:10283000018803D021F480410180704741F4804138
:10284000FAE70246002012890A4200D001207047B0
:10285000C9430181704710B501F00F0401220346FE
:1028600002FA04F4002009098A4091B29A88A4B2BD
:102870000A401989214202D0002A00D0012010BD4F
:1028800001F00F0201219140C9430181704700000E
:102890000030014000380040003C00402849084317
:1028A00028490860704770B50F23C4780178012269
:1028B000F4B1244C2468457804F4E064C4F5E06481
:1028C000240AC4F10406E3408478B5401C402C433C
:1028D00001F1E021230181F80034007800F01F01AC
:1028E0008A404009800000F1E020C0F8002170BD5E
:1028F00001F01F0082404809800000F1E020C0F88C
:10290000802170BD104A114001430E48001F016034
:1029100070470C4A121D0029116801D0014300E0E4
:102920008143116070474FF0E0210428086903D00B
:1029300020F004000861704740F00400FAE700004E
:102940000000FA050CED00E080FFFF1F2DE9F843C1
:102950008146089C1E46101980B20090881983B2E7
:1029600015468846484601F0EAF900280ED00027AF
:10297000002C0BD033462A4641464846009701F0CA
:1029800052F96D1C641EADB2A4B2F1E7BDE8F88344
:102990002DE9F84F83460A9E9A46901980B201EBC2
:1029A0000A04009015460F46A3B2584601F0C7F935
:1029B00000282FD04FF0000953462A463946584682
:1029C000CDF8009001F02FF9022E23D3B61E360465
:1029D00005F10105360CADB214D04FF001083346B5
:1029E0002A4639465846CDF8008001F01CF9641E8D
:1029F000A1B233462A465846CDF8008001F013F9BB
:102A0000A81985B253462A4639465846CDF8009053
:102A100001F009F9BDE8F88F2DE9FF4F83B01F469B
:102A2000DDE910A402EB0A06B0B2CD190090904681
:102A30008946ABB2039801F082F900285CD009EB1B
:102A400004001FFA80FB08EB040081B2281B401E23
:102A500085B2301B401E80B2CDE9010102200A463A
:102A6000009023465946039800F097FA0120009001
:102A7000DDE902202346294600F08FFA0420009069
:102A800023465946019A039800F087FA08200090DF
:102A900023462946019A039800F07FFA0BF10101C1
:102AA0001FFA81FB0299381B491C001B80B289B2B6
:102AB0000291032811D3801E86B2601C85B2334672
:102AC0004246594600950398FFF740FF334600956C
:102AD0005946019A0398FFF739FFAAEB0400001B3F
:102AE00080B2032808D3801E80B20090DDE9022066
:102AF0003B464946FFF72AFF07B0BDE8F08F2DE9B6
:102B0000FF4F83B01C46DDE9106502EB060A1FFA91
:102B10008AF001EB04090090174688461FFA89F3F2
:102B2000039801F00CF90028E6D008EB05001FFA25
:102B300080FB781981B2A9EB0500401E80B2CDE977
:102B40000110AAEB0500401E1FFA80F902200A4678
:102B500000902B465946039800F09BF90120009005
:102B6000DDE902102B46019A00F093F90420009051
:102B70002B464A465946039800F08BF908200090EE
:102B8000DDE902102B464A4600F083F9601B711BF9
:102B9000401B491B8DB20BF101011FFA81FA01990B
:102BA00080B2491C1FFA81FB032810D3801E80B21B
:102BB000814603463A465146761E039801F088F84E
:102BC000B81982B24B465146039801F081F8032DA3
:102BD00092D3AD1EADB22B465A464146641E0398B1
:102BE00001F07CF808EB040081B2039807B02B4693
:102BF0005A46BDE8F04F01F071B87DE701680A7CE4
:102C000090F83810406B5143C90003F044B92DE9E6
:102C1000F843064690F8387090F839500068002460
:102C20004FF6FF7890F81190316830462A460B7CB9
:102C3000716B04FB03FC1FFA8CFC08EACC0C6144AA
:102C40000091002102F09FFF641C6D1CE4B2EDB204
:102C5000BC4201D24D45E7D3BDE8F88310B5044628
:102C6000FFF7D5FF2046BDE8104002F0D3BF10B5F6
:102C7000044680F83910006B016820468847206BB5
:102C800041682046BDE81040084710B5044690F85A
:102C9000930010B12046FFF7B1FF2046BDE8104079
:102CA0000021E4E770B50446FFF7B1FF94F839005E
:102CB00094F838100844C5B22068407CA84204D873
:102CC000204602F0A7FF002070BD94F8930010B1D9
:102CD0002046FFF793FF29462046FFF7C8FF012053
:102CE00070BD2DE9F84F04468946216890F83800F8
:102CF0000A9E497C9A461546884215D1606BB4F805
:102D00003A8000EBC90008FB05070BE053462A4652
:102D100049462046009702F036FF6D1C761E474458
:102D2000EDB2F6B2002EF1D1BDE8F88F6FE738B5FD
:102D30000D46044690F8381000682A46007C02F0E0
:102D4000D1FC0095206894F83820214B017C606B01
:102D500002F0DDFC38BD38B50D46044690F8381059
:102D600000682A46007C02F0FCFC0095206894F87C
:102D70003820174B017C606B02F00CFD38BD38B574
:102D80000D46044690F8381000682A46007C02F090
:102D9000A9FC0095206894F838200E4B017C606BEC
:102DA00002F0B5FC38BD38B50D46044690F8381031
:102DB00000682A46007C02F0D4FC0095206894F854
:102DC0003820044B017C606B02F0E4FC38BD00004D
:102DD000A9560008C55600082DE9FF4F83B00E46DE
:102DE000DDE9108703EB060002901546A8EB06000C
:102DF000019003EB05001C46F907A8EB050B0090BA
:102E00000DD002981FFA8BF281B2039800F06CFF8C
:102E1000019882B2009881B2039800F065FFB9076B
:102E2000A4EB060AA4EB05090DD51FFA8BF21FFAD5
:102E30008AF1039800F058FF01981FFA89F182B2D5
:102E4000039800F051FF08EB0504390708EB06056D
:102E50000BD50298A2B281B2039800F045FF00980A
:102E6000AAB281B2039800F03FFF78070ED5A2B254
:102E70001FFA8AF1039800F037FF039807B0AAB24F
:102E80001FFA89F1BDE8F04F00F02EBF07B0BDE892
:102E9000F08F2DE9F8431C4680461019401C80B283
:102EA00000900819401C83B21546101B82B20E46D2
:102EB000081B81B2089F404600F041FF002806D061
:102EC00023462A4631464046009700F02CF9BDE8DB
:102ED000F8832DE9FF4F83B0164610980F46A0EBFC
:102EE000060B03EB070001901098DDF84490A0EB6F
:102EF000070098465FEAC97103EB060A02F1010573
:102F000007F1010400900FD00198ABB281B21FFA13
:102F10008BF2039800F0E2FE0098A3B282B21FFA8F
:102F20008AF1039800F0DAFE5FEA8971A8EB0707DF
:102F3000A8EB06060DD5ABB21FFA8BF2B9B2039817
:102F400000F0CCFE0098A3B282B2B1B2039800F0B8
:102F5000C5FE5FEA09700DD50198ABB281B2109A37
:102F6000039800F0BBFEA3B21FFA8AF1109A0398EF
:102F700000F0B4FE5FEA497088D5ABB2B9B2109ADE
:102F8000039800F0ABFE109A039807B0A3B2B1B259
:102F9000BDE8F04F00F0A2BE78E72DE9F8431C46EB
:102FA00080461019401C80B200900819401C83B262
:102FB0001546101B82B20E46081B81B2089F404680
:102FC00000F0BDFE002882D023462A463146404606
:102FD000009700F0DBF87AE72DE9F05F9146DDE934
:102FE0000AA488461E468346E207AAEB090503EBBE
:102FF000080704D0AAB2B9B2584600F075FEA1077E
:10300000A6EB080604D5AAB2B1B2584600F06CFE91
:1030100022070AEB090504D5AAB2B9B2584600F056
:1030200063FE600706D5AAB2B1B25846BDE8F05FAC
:1030300000F05ABEBDE8F09F2DE9FC478146DDE96E
:103040000A481019401C80B21D4600904819401CC7
:1030500083B21646101B82B20F46481B81B2484607
:1030600000F06DFE002807D0CDE900482B4632461F
:103070003946484600F0BDF8BDE8FC872DE9F05F11
:103080008946DDE90AA51F468346E907AAEB02083F
:1030900003EB090602F1010406D0A3B21FFA88F27D
:1030A000B1B2584600F01AFEA907A7EB090706D5EA
:1030B000A3B21FFA88F2B9B2584600F00FFE2807F3
:1030C00005D5A3B2B1B25246584600F007FE6807D4
:1030D000B0D5A3B2B9B252465846BDE8F05F00F091
:1030E000FDBDA7E72DE9FC478146DDE90A48101937
:1030F000401C80B21D4600904819401C83B2164601
:10310000101B82B20F46481B81B2484600F017FEE2
:103110000028B1D0CDE900482B4632463946484612
:1031200000F0D4F8A8E72DE9FF4FC3F1010083B008
:1031300006B258429146DDF840A040008B46012778
:103140001C46CDE9009A00250FFA80F85B4622461E
:10315000294615E0002E08DB08F102000FFA80F87E
:10316000641E06EB0800A4B206B26D1CBF1C3FB281
:10317000CDE9009AADB2F01906B25B462246294667
:103180000398FFF729FEA542E4D37FE62DE9FF4F20
:10319000C3F1010083B006B258429146DDF840A069
:1031A00040008B4601271C46CDE9009A00250FFA06
:1031B00080F85B462246294615E0002E08DB08F120
:1031C00002000FFA80F8641E06EB0800A4B206B2F3
:1031D0006D1CBF1C3FB2CDE9009AADB2F01906B22A
:1031E0005B46224629460398FFF773FEA542E4D3C7
:1031F0004CE62DE9FF4F87B01C46149D03FB04F1FC
:1032000005FB05F0470004900020CDE90230C3F132
:1032100001004E00001B68434FF0000800FB05F959
:1032200007FB04FBC24605911EE015990998CDE9FC
:103230000001DDE90703DDE90212FFF7CDFE039887
:103240000599401C80B2039088198844059009EBC9
:103250004800B244002807DD0298C844401E80B2EE
:10326000ABEB070BB9440290D345DEDA00200290A5
:10327000C5F10100401B604300FB04F8AB4600248D
:10328000A14606FB0BF5DDF810A01BE01599099887
:10329000CDE90001DDE907035A460299FFF79CFEDC
:1032A00002985444401C80B2029008EB4400B94498
:1032B000BA44002806DDABF1010044441FFA80FB4C
:1032C000AD1BB044A945E1DD0BB0E0E52DE9FF4FB2
:1032D00087B01C46149D03FB04F105FB05F0470075
:1032E00004900020CDE90230C3F101004E00001B24
:1032F00068434FF0000800FB05F907FB04FBC246DA
:1033000005911EE015990998CDE90001DDE9070353
:10331000DDE90212FFF7B2FE03980599401C80B266
:10332000039088198844059009EB4800B2440028AE
:1033300007DD0298C844401E80B2ABEB070BB944CE
:103340000290D345DEDA00200290C5F10100401B57
:10335000604300FB04F8AB460024A14606FB0BF5D6
:10336000DDF810A01BE015990998CDE90001DDE911
:1033700007035A460299FFF781FE02985444401C05
:1033800080B2029008EB4400B944BA44002806DD3C
:10339000ABF1010044441FFA80FBAD1BB044A945CA
:1033A000E1DD91E70821017000487047BC02002070
:1033B0007CB50C46009313460546084A084902F0BE
:1033C000A4FC01A8FFF7EEFF0146064B00949DF810
:1033D0000420284600F0AEFD7CBD0000915200089C
:1033E00075590008F53D000870B505460878287045
:1033F000487868708878A870C878E870087928716B
:103400004879687188790C46A871E079E871207A6A
:103410002872607A6872A07AA872E07AE872207BDB
:103420002873607B6873A07BA873E07BE873207CC3
:1034300028741121204600F0C1FB68821321204628
:1034400000F0BCFBA8821521204600F0B7FBE88203
:1034500070BD70B5054600F11704607808B10444EA
:10346000FBE7A41C0021204600F0A8FB20444FF6F7
:10347000FF73017803EA01224178114302D0817879
:103480000844F6E7401B801C70BD90F87D00704733
:1034900090F87E00704790F97F00704790F98000A7
:1034A000704790F88100704730B50568047B2A7832
:1034B000E2406318DBB2082B09D36D1C05602D7840
:1034C000C4F10804A5401543083BEAB2DBB201246D
:1034D0008C40641E14400373204630BD10B50C466A
:1034E000FFF7E2FF0122641EA240801A40B210BD25
:1034F0002BB1012B05D0022B06D0401A02E010445C
:1035000000E0084480B27047801AFBE72BB1012B22
:1035100005D0022B06D0104402E0084400E0801AD7
:1035200080B27047401AFBE72DE9F74F82B00D4695
:10353000029C94F8687094F869806034A07AC01B8B
:10354000C6B2B346B54200D2AB464FFA88F279B262
:10355000A088B4F806A0237C91468C46FFF7D6FFDE
:103560000190237C4A4661465046FFF7C1FF024660
:10357000049808B1A17B02E0607B50B9E17B02981E
:103580005B4680F89210207C0090DDE9011000F08D
:103590004AFBB54207D3A81BC5B208F101000027BA
:1035A00000F0FF08CAE77819207284F8098005B096
:1035B000BDE8F08F30B5054600F1600401660020DB
:1035C000207315F8781F2046FFF76EFFA072697808
:1035D0002046FFF769FFE072A87EA07310B10020BB
:1035E000E07330BD0120FBE72DE9F843054600F10B
:1035F0006004FFF7DFFF15F96B6F2046E97BFFF7EB
:103600006DFF8446297C2046FFF768FF0746697CEA
:1036100020466B3DFFF762FF804694F90A000028C0
:1036200057DDF019404247B2237CA0883A466146F4
:10363000FFF76CFFA080237C3A46E0886146FFF7E5
:1036400057FFE080A188277C02460B4637B1012F47
:103650000AD0022F40D0032F0FD146E094F90A7010
:1036600030443B449BB207E0891B491C94F90A7023
:103670005B1C89B29BB2384480B20090284600F0AF
:103680005EFB30B30020207284F8090095F87610B4
:103690002046FFF709FF814695F877102046FFF78F
:1036A00003FF0746002249462846FFF73DFF012257
:1036B00039462846FFF738FF01212046FFF7F4FE80
:1036C0000028EFD194F90900B042DFDBA07B85F838
:1036D00092004046BDE8F88394F90A705B1CC91B50
:1036E000491C89B29BB2921B04E094F90A703344DE
:1036F0009BB2D21B521C92B2401CBDE770B50D4666
:103700000146806D1730FF2D10D8612D02D3B1F81E
:10371000881003E0412D02D3B1F8861008444178A7
:1037200019B30278AA42F9D1801C70BDB1F88A1091
:103730000C1826460021304600F040FA04440221CD
:10374000304600F03BFA361DA842F3D34FF6FF7225
:10375000207802EA00216078084306D0A84201D10F
:10376000E01C70BDA0780444F2E7002070BD10B5E5
:10377000FFF7C4FF002800D0012010BD70B504463B
:10378000FFF7BCFF010015D02046FFF713FF04F13F
:10379000600094F87A100546FFF7A0FE84F89000C8
:1037A00014F87B1F2846FFF799FE61782846BDE88C
:1037B000704093E6002070BD80F86D1070472DE9D1
:1037C000F041044690F870001F4615460E4630B191
:1037D000012809D002280CD0032815D10FE0E16D93
:1037E00020468847284408E0E16D20468847301A83
:1037F00009E0E16D20468847281A85B204E0E16DB2
:1038000020468847304486B22846A4F86460A4F86D
:103810006600394600252046FFF770FF010003D0FF
:103820002046FFF7E1FE85B22846BDE8F0812DE98C
:10383000F0471C4691468846064600F0DCFD002510
:103840004FF6FF7772682178304690470346B842BA
:1038500025D0641CA3F57F40FE38F3D04A4641468C
:103860003046FFF7ACFF96F8701031B1012907D050
:10387000022908D003290FD10AE008EB000104E077
:1038800009EB000106E0A8EB00011FFA81F803E054
:10389000A9EB00011FFA81F9284485B2D2E7284636
:1038A000BDE8F08730B4CA4C446030BCBFE730B4E8
:1038B000C84C446030BCBAE72DE9FF5F8B46C54970
:1038C0000F9F80464FF6FF7A416000F094FD00267E
:1038D000D8F80420397840469047A0F57F41044647
:1038E000FF3936D07F1CA4F57F40FE38F0D021464A
:1038F0004046FFF743FF85B2039870B15346224616
:1039000040460E9900F032FA8146A5EB090085B2D7
:10391000ABEB05001FFA80FB09E023465246404608
:103920000E9900F023FA8146A5EB090085B2A24664
:10393000534659464046029AFFF741FF039828B97B
:103940000BEB0500A0EB09001FFA80FB701986B293
:10395000BEE7304604B0BDE8F09F2DE9FF5F8A4620
:103960009C490F9F4FF6FF748046A146416000F0CE
:1039700042FD0026A346D8F80420397840469047F7
:10398000044658452FD07F1CA4F57F40FE38F2D066
:1039900021464046FFF7F2FE85B2039868B14B46D8
:1039A000224640460E9900F00BFA281A85B2AAEB7F
:1039B000050080B28246A1460CE023464A464046B6
:1039C0000E9900F0FDF9281A85B20AEB050080B2C5
:1039D000A146824601464B464046029AFFF7EFFE5B
:1039E000701986B2C7E73046B4E710B5816D00297B
:1039F0001AD090F9813080F88E3090F9822080F8CA
:103A00008F2090F88D1000290ED001290DD090F94B
:103A10007E4090F980100C449C4201DD80F88E407D
:103A20008A4201DD80F88F1010BD90F983108B421F
:103A300001DA80F88E1090F98410F1E7002180F807
:103A40008D10D2E7012180F88D10CEE7022180F899
:103A50008D10CAE700207047AFF20701C1657047BB
:103A600090F98F0080B27047AFF20B01C1657047CB
:103A700090F98E00401C80B27047AFF20B01C16517
:103A8000704710F88E2F4178501A40B200EBD0707A
:103A900001EB600040B280B27047AFF21901C1651E
:103AA000704710B50446806D884208D004F1740058
:103AB000A165FFF799FC2046BDE8104095E710BDD1
:103AC0002DE9F041434A05460C46426000F093FC64
:103AD0004FF6FF76771E6A682178284690470146A0
:103AE000B04208D0641CB942F5D02846FFF706FE64
:103AF0000028F0D199E6012097E62DE9F047054628
:103B0000002085F86A0088466FF03F06284600F0DE
:103B100072FC002427464FF6FF794FF6FE7A00BF6D
:103B20006A6898F8001028469047014648450FD02B
:103B300008F101085145F3D02846FFF71FFE87B270
:103B400016F1400F01D195F99060E01984B2E7E7D2
:103B500095F96A1049B1E01B084495F99010002EC0
:103B6000084484B201DDA01984B2204698E670B5FD
:103B7000002504460978FFF7C1FD010013D0204657
:103B8000FFF718FD04F1600094F87A100646FFF77D
:103B9000A5FC054614F87B1F3046FFF79FFC6178B3
:103BA0003046FFF79BFC284670BD094A4260A4E7F7
:103BB000084A4260A1E780F87010704708444FF649
:103BC000FF720178407802EA0121084480B2704710
:103BD000FF4300080D44000830B504880D882544D3
:103BE000ADB2AC4205D99C4202D25D1EADB200E03E
:103BF00014469C4201D2954201D8002030BD944227
:103C000000D214469D4200D91D460480281B08801E
:103C1000012030BD38B5C58F049C0094521BC46A86
:103C200092B2A04738BD3FB581B0044690F88C00F1
:103C30000899002839D0BDF81000002835D0012897
:103C400011D9022902D0032907D00CE0BDF80820C1
:103C5000101A401CADF8080005E0BDF80C20101A41
:103C6000401CADF80C0011F0010520D0B4F848104C
:103C7000BDF80800814218D8B4F84A10814214D91E
:103C8000B4F84E30B4F84C2004A903A8FFF7A4FF01
:103C900000280AD00095206BBDF81030BDF80C202C
:103CA0008568BDF808102046A84705B030BDB4F8B7
:103CB0004C10BDF80C008142F7D8B4F84E10814288
:103CC000F3D9B4F84A30B4F8482004A902A8DDE7D3
:103CD00038B500240094FFF7A6FF38BD38B501249D
:103CE0000094FFF7A0FF38BD08B5B0F84C30934200
:103CF00010D8B0F84E3093420CD9B0F848308B420F
:103D000008D8B0F84A308B4204D90023009301232D
:103D1000FFF789FF08BD80F89210032902D3012123
:103D200080F8921070478A4205D2834201D89A42A5
:103D300003D9012070478342F9D80020704770B53D
:103D40000D461E460446B0F84E10B0F84C00049BD9
:103D5000FFF7E9FF002808D0B4F84A10B4F848008B
:103D600033462A46BDE87040DDE770BD30B511B37B
:103D70000888401E84B2002006E04D6835F81050D7
:103D8000954203D0401C80B2A042F6D3A04212D28A
:103D90008C68022202EB4002A25A34F8100006E0BE
:103DA000CC6834F810409C4203D0401C80B2904252
:103DB000F6D3904201D3002030BD0969085C30BDC4
:103DC00030B50020A1B14FF6FF7500BF31F81040AB
:103DD000AC420DD0944208D101EB400464889C426F
:103DE00003D101EB4000007930BDC01C80B2EDE78B
:103DF000002030BDF0B502F007060124B4400025D4
:103E000090F892E0E7B2DDF814C02C46BEF1010F45
:103E100001D83D4600D03C46076822F00702BCF1BD
:103E2000000F3F7C07FB02F7BAB2476B3A441144DC
:103E300009D108785B1E284360401B0401F8010B80
:103E40001B0CF6D1F0BD0A78761C2A436240A3F120
:103E500001030A7016F007069BB206D06A06150E1B
:103E60006206140E002BEED1F0BD428F114490F883
:103E70009220012A03D800BF4FF00105F2D04FF085
:103E80000104EFE7F0B5046801F00707059E257C03
:103E90008024FC406A4302EBD101426B89B2114499
:103EA000BEB900BF90F89220012A06D80A782243B2
:103EB0000A7090F89220012A02D00A7862400A70B3
:103EC000640801D18024491C5B1E1B041B0CE9D132
:103ED000F0BD90F89220012A06D80A7822430A7091
:103EE00090F89220012A02D00A7862400A705B1E84
:103EF0001B0429441B0CECD1F0BD00000021A0F8EC
:103F00005010A0F854104FF6FF71A0F85210A0F80E
:103F10005610016B4968084730B4029CA0F8501055
:103F2000A0F85420A0F85230A0F85640016B496820
:103F300030BC084770B5044600250498A565E362C7
:103F4000616384F8382084F8395084F86D5084F81F
:103F50009150012184F8921084F893102063016835
:103F6000204688472046FFF7C9FF2046FFF774FD2B
:103F700084F8705070BD10B5016309680446884725
:103F8000206B41682046BDE8104008470FB410B5CB
:103F900004AA039900F06DFF10BC5DF814FBF0B5A6
:103FA00090F838204FF6FF75036805EAC201818753
:103FB000197C05EAC101418790F8394005EAC4013E
:103FC000C1875E7CA718B74201D9321B92B205EABD
:103FD000C20220F8401F11444180998A8180D98A09
:103FE000C180F0BD38B50446B0F856000090B4F872
:103FF0005230B4F85420B4F850102046FFF79FFE1A
:1040000018B3012084F88C00B4F84810B4F85000BC
:10401000814201D2A4F84800B4F84A10B4F8520022
:10402000814201D9A4F84A00B4F84C10B4F8540005
:10403000814201D2A4F84C00B4F84E10B4F85600F6
:10404000814201D9A4F84E0038BD002084F88C00CC
:1040500038BDA4E70021A0F84810B0F84410A0F83B
:104060004A10B0F84010A0F84C10B0F84210A0F878
:104070004E10B7E710B50446FFF791FF2068818A1C
:10408000A4F84610C08AA4F8440010BDB0F840104F
:10409000A0F84810B0F84210A0F84A100021A0F88B
:1040A0004C10B0F84610A0F84E109BE777E70021BF
:1040B000A0F84810B0F84420A0F84A20A0F84C100E
:1040C000B0F84610B0F84220914202D38A1AA0F804
:1040D0004C20B0F84020891AA0F84E1082E710B5A5
:1040E0000446FFF75CFF2068818AA4F84610C08A66
:1040F000A4F8440010BD0023A0F84830B0F84410E4
:10410000B0F84220914202D38A1AA0F84820B0F8B1
:104110004020891AA0F84A10A0F84C30B0F8461098
:10412000A0F84E105EE738B5049C0094FFF772FDCE
:1041300038BD38B5B0F84450049C691A89B2E50717
:1041400005D0491E89B20094FFF764FD38BDC91A35
:10415000F8E738B5B0F84650049CAA1A92B2E507C1
:1041600001D0D21A00E0521E92B20094FFF752FD25
:1041700038BD38B515460A46B0F84610049C491BB0
:10418000491E641CE4B289B2022C03D1C91A491C2D
:1041900089B200240094FFF73DFD38BD38B5B0F872
:1041A0004650049CAA1AB0F8445092B2691A89B2D7
:1041B00014B1012C05D008E0521EC91A92B289B27E
:1041C00003E0491ED21A89B292B20094FFF722FD91
:1041D00038BD38B50C461146B0F84420049D121B7A
:1041E00094B2641E2DB1A2B200240094FFF712FD18
:1041F00038BDE21A521C92B20124F6E738B50C46DB
:10420000009313460546064A064901F07EFD064B1B
:104210000122064928460094FFF78CFE38BD0000B5
:104220003D4F0008CD5C0008F53D00082E01002040
:10423000C1617047F0B5C46925786678A778E478DD
:104240007C43E4B28D4215D8B14213D8491B01FB1F
:1042500004314FF6FF7303EAC101091D8BB200213F
:10426000C469E45C54545B1C491CC9B29BB2082964
:10427000F6D306E000210B465354491CC9B2082965
:10428000FAD390F82300002807D00020115CC9431E
:104290001154401CC0B20828F8D3F0BD2DE9FF4FDF
:1042A0008346C069894615468178C07883B0494401
:1042B0002844CFB200F0FF0A00260DF104084C4656
:1042C000334601AA58460699FFF7B4FF01232A4650
:1042D00021465846CDF8008001F055FC761C641C40
:1042E000E4B2F6B2BC42EBD36D1CEDB25545E6D359
:1042F00007B0BDE8F08F40EA001040F60F710840AB
:1043000040EA800043F23331084040EA400045F281
:104310005551084040EA400070472DE9F84F884663
:10432000C16982469B468878C97808EB4000C7B2CD
:1043300002EB4100154600F0FF09002644465B46AB
:104340002A4621465046009600F05CF9761CA41CD3
:10435000E4B2F6B2BC42F2D3AD1CEDB24D45EDD3A2
:10436000BDE8F88F2DE9FF4F89B0C1691446814639
:1043700088780A9AC978104400F0FF0A04EB4100DB
:10438000C0B200260DF1040804AF0DF1180B039024
:104390000A9D4846334601AA0C99FFF74BFF0022BD
:1043A0004FEA0B0318F80200FFF7A5FF4FEA102CA5
:1043B00007F802C09854521CD2B2082AF2D30093D4
:1043C000012322462946484601F0DDFB601CC2B2AB
:1043D000012329464846009701F0D5FB761C6D1C49
:1043E000EDB2F6B25545D4D3A41C0398E4B284428E
:1043F000CED30DB07DE7002180F82610704708006D
:1044000001D00A2801D14FF6FF70704730B54FF642
:10441000FF72A9B30A293FD090F82630541E7BB111
:104420005B1E13F0FF0380F82630058C01F03F017E
:1044300002EA851242EA010202842DD0204630BDF4
:10444000FC2905D3052280F8262001F001011FE098
:10445000F82905D3042280F8262001F0030117E093
:10446000F02905D3032280F8262001F007010FE090
:10447000E02906D3022280F8262001F00F0107E090
:104480000AE0C02906D3012280F8262001F01F018E
:104490000184D3E7084630BD104630BD2DE9F05FFA
:1044A0000646C06900241D4690F8028093460F46D8
:1044B00086F826404FF6FF794FF6FE7A7268297823
:1044C0003046904748450ED06D1C5045F6D0C3B2DB
:1044D0005A4639463046FFF7E1FE07EB0800641CF8
:1044E000C7B2E4B2EAE72046BDE8F09F30B4AFF2CD
:1044F000F104446030BCD1E730B4AFF2EF04446063
:1045000030BCCBE72DE9F05F0646C06900241D46AC
:104510008078934640060F464FEA106886F826409A
:104520004FF6FF794FF6FE7A726829783046904749
:1045300048450ED06D1C5045F6D0C3B25A46394698
:104540003046FFF7EAFE07EB0800641CC7B2E4B28E
:10455000EAE72046C8E730B4AFF25D14446030BCEF
:10456000D0E730B4AFF25B14446030BCCAE72DE949
:10457000F05F0646C06900241D4690F8028093460D
:104580000F4686F826404FF6FF794FF6FE7A72689E
:1045900029783046904748450ED06D1C5045F6D0DE
:1045A000C3B25A4639463046FFF7DCFE07EB080037
:1045B000641CC7B2E4B2EAE7204695E730B4AFF234
:1045C000C114446030BCD2E730B4AFF2BF144460D1
:1045D00030BCCCE7F0B500240D46064680F82640F6
:1045E0004FF6FF774FF6FE7C29783046FFF70EFF37
:1045F000B84205D06D1C6045F6D0641CE4B2F3E708
:104600002046F0BD2DE9F04387B01C46154688468C
:10461000814601AA21460E9BFFF70CFE002201AC49
:1046200003AE05AFA05CFFF766FE010AB154B854B3
:10463000521CD2B2082AF5D301A905A800F02EF821
:1046400001232A4641464846009401F09CFA01A9FC
:10465000381D00F023F808F10107F9B201232A46BA
:104660004846009401F08FFA01A903A800F016F85B
:104670006D1CEAB2012341464846009401F083FADA
:1046800001A9301D00F00AF8EAB2F9B20123484648
:10469000009401F078FA07B0BDE8F08304220378B3
:1046A00001F8013B10F8013B521E01F8013B12F0EA
:1046B000FF02F4D17047000030B404690023A4461F
:1046C0000A4630BC2021604730B404691346A44632
:1046D0000A4630BC1721604713B50122046901ABBB
:1046E0001721A0471CBD30B404690023A44630BC88
:1046F0001A461821604730B404690023A44630BC30
:104700001A4619216047012070472DE9F0470446F9
:10471000006890461829027B02F00109C9F1010ADC
:104720004FD004DC14293BD0172904D106E0192905
:1047300055D020293FD00020BDE8F0871D462BE052
:1047400015F8017BA8F1010000F0FF0800263806EB
:1047500001D5012200E000224121204601F0AEFAFD
:104760007806070E52464021204601F0A7FA20683D
:104770002C218279204601F0A1FA4A4640212046A8
:1047800001F09CFA20682C21C279204601F096FAAB
:10479000761CF6B2082EDAD3B8F1000FD0D11CE0A7
:1047A00042784921204601F089FA20684021007BA7
:1047B00000F0010201E042464A21204601F07EFA63
:1047C0000BE002784921204601F078FA20680023A6
:1047D000656982782C212046A8470120ACE7C27881
:1047E000002365692C212046A8472068492142788A
:1047F000E3E72DE9F04190460446182949D004DC4E
:10480000142938D0172904D106E0192950D02029BD
:104810003AD00020BDE8F0811E4628E016F8017B62
:10482000A8F1010000F0FF085FF0400507F0010269
:104830002946204601F042FA6D1C7F08EDB2472D53
:10484000F4D920682C21827B204601F037FA01221E
:104850004821204601F032FA20682C21C27B2046F4
:1048600001F02CFA00224821204601F027FAB8F185
:10487000000FD3D11AE0206849214278204601F088
:104880001DFA002248211DE05FF04A0101F016FAEE
:104890000CE0206849210278204601F00FFA2068D8
:1048A0000023656982782C212046A8470120B1E7C2
:1048B000206800236569C2782C212046A84720681B
:1048C000492142782046E1E72DE9F041904604462F
:1048D000182948D004DC142937D0172904D105E061
:1048E00019294FD0202939D0002093E71E4628E00F
:1048F00016F8017BA8F1010000F0FF085FF0400509
:1049000007F001022946204601F0D8F96D1C7F0806
:10491000EDB2472DF4D920682C21827B204601F08E
:10492000CDF900224821204601F0C8F920682C2149
:10493000C27B204601F0C2F901224821204601F045
:10494000BDF9B8F1000FD3D11AE0206849214278AF
:10495000204601F0B3F9012248211DE05FF04A0131
:1049600001F0ACF90CE0206849210278204601F002
:10497000A5F920680023656982782C212046A84784
:10498000012047E7206800236569C2782C21204672
:10499000A8472068492142782046E1E72DE9F84FF1
:1049A000044600681646DFF850B4027B182902F06E
:1049B000010ACAF10102009252D004DC142941D04C
:1049C000172904D106E0192957D0202945D0002005
:1049D000BDE8F88F984632E098F800509BF8000048
:1049E00008B145F48075761E08F10108F6B200277B
:1049F0004FF6FF79E80501D5012200E000224121B0
:104A0000204601F05BF909EA450540212046009A5D
:104A100001F054F920682C218279204601F04EF9EA
:104A200052464021204601F049F920682C21C279E4
:104A3000204601F043F97F1CFFB2092FDAD3002E84
:104A4000CAD126E042784921204601F037F9206892
:104A50004021007B00F0010218E08BF8006018E0B4
:104A600002784921204601F029F920680023656970
:104A700082782C212046A8470BE0C2780023656984
:104A80002C212046A847206849214278204601F081
:104A900015F901209CE770B50C4601F001020546AE
:104AA000492101F00BF9640804F001024E21284667
:104AB00001F004F9C4F340022846BDE870404F21DC
:104AC00001F0FCB82DE9F04190460446182948D081
:104AD00004DC142937D0172904D105E019294BD05B
:104AE00020293AD0002095E61E4628E016F8017BE2
:104AF000A8F1010000F0FF085FF0400507F0010297
:104B00002946204601F0DAF86D1C7F08EDB2472DEA
:104B1000F4D920682C21827B204601F0CFF80122B5
:104B20004821204601F0CAF820682C21C27B20468B
:104B300001F0C4F800224821204601F0BFF8B8F186
:104B4000000FD3D123E0206849214278204601F0AC
:104B5000B5F800224821204600E04A2101F0AEF8D5
:104B600015E01146FFF797FF2068002365698278FA
:104B70002C212046A8470AE0206800236569C278F6
:104B80002C212046A84741462046FFF784FF0120FC
:104B900040E62DE9F0474824DFF85C921E461546B2
:104BA0008046182957D004DC14293CD0172904D199
:104BB00036E0192955D0202949D00020BCE500BF96
:104BC0006D1E16F8017BEDB25FF0400407F00102A4
:104BD0002146404601F072F8641C7F08E4B2472C7D
:104BE000F4D9D8F800002C21827B404601F066F809
:104BF00001224C4699F80110404601F05FF8C822A6
:104C00002C21404601F05AF8D8F800002C21C27B34
:104C1000404601F053F800226178404601F04EF81A
:104C2000002DCDD11DE0D8F8000049214278404642
:104C300001F044F800224821404601F03FF80022EC
:104C40004921404601F03AF889F8014009E04A213B
:104C500001F034F805E089F8014012B1492189F8E2
:104C60000110012068E570B50C46054601F0800191
:104C700000F0B0F804F04001284600F0ABF804F072
:104C80002001284600F0A6F804F01001284600F0A4
:104C9000A1F804F00801284600F09CF804F0040193
:104CA000284600F097F804F00201284600F092F838
:104CB00004F00101284600F08DF8284600F082F843
:104CC000284600F06CF8284600F06EF8284600F000
:104CD00079F8284600F063F82846BDE8704000F0F7
:104CE0006DB870B516460446182924D004DC142982
:104CF00014D0172904D105E019293DD020294CD022
:104D0000002070BD1D4606E029782046FFF7ABFF66
:104D1000761EF6B26D1C002EF6D13EE001224C212B
:104D200000F0CCFF01224D21204600F0C7FF2046B5
:104D300000F035F831E094F8250040B1204600F04D
:104D400041F8204600F02BF8204600F02DF82046D0
:104D500000F038F8204600F039F8204600F01FF83F
:104D6000204600F02BF8012184F82510204694F805
:104D70002410FFF778FF10E000F028F8204600F03C
:104D80000EF8204600F010F8204600F01BF82046F0
:104D900000F005F8002084F82500012070BD0168AE
:104DA0004A7B2D2100F08ABF10B5044601224C2118
:104DB00000F084FF2046BDE81040F0E700224C21BF
:104DC00000F07CBF01224D2100F078BF00224D2170
:104DD00000F074BF10B5044611B1FFF7F3FF01E016
:104DE000FFF7F4FF2046FFF7DAFF2046FFF7DCFF6E
:104DF0002046BDE81040E1E73601002030B4C46829
:104E00000023A4460A4630BC1521604730B4C4686C
:104E10000023A4460A4630BC162160472DE9F04124
:104E200017460C46054607E00023EE683A46162171
:104E30002846B047641EE4B2002CF5D10120BDE83D
:104E4000F08130B4C4681346A4460A4630BC17212A
:104E5000604730B4C4680023A44630BC1A46182109
:104E6000604730B4C4680023A44630BC1A461921F8
:104E70006047F8B515460C460646FFF7EAFF19E00D
:104E800015F8041B8DF800102078612804D06328E1
:104E900006D064280DD107E03046FFF7B7FF08E0E1
:104EA0003046FFF7ABFF04E06A4601213046FFF7CA
:104EB000C8FF641C20780028E2D13046FFF7D1FFFC
:104EC000F8BD0FB410B504AA0399FFF7D2FF10BCC8
:104ED0005DF814FBF8B50C464FEA000514F8011B09
:104EE000182924D00EDC152919D0162917D0172916
:104EF00023D120788DF800006A4601212846FFF76B
:104F0000A0FF0AE0192912D0FE2916D122788DF8C7
:104F100000202921284600F0D1FE641CDEE722781B
:104F20008DF80020EE6800232846B047F5E70023FF
:104F3000EE681A462846B047D0E7F8BD70B5A1F133
:104F40001404062C0ED2DFE804F008030308080856
:104F50001146FFF7C1FB012070BD0469A446BDE8FE
:104F600070406047002070BD2DE9F0410546A1F179
:104F700014001F4616460C4606281BD2DFE800F038
:104F80001103030D111101212846FFF795FB31464E
:104F90002846FFF7A1FB012051E700212846FFF733
:104FA0008BFB3B46324621462846D5F810C0BDE86B
:104FB000F0416047002042E72DE9F0410646A1F1AB
:104FC00014001D46144606282ED2DFE800F0270301
:104FD00003122B2B01213046FFF76EFB3046FFF703
:104FE00082FB21463046FFF777FB3046FFF783FB15
:104FF00018E000213046FFF75FFB0CE03046FFF77A
:1050000072FB29783046FFF767FB3046FFF773FBEA
:10501000641EE4B26D1C002CF0D103E03769224617
:105020003046B84701200AE7002008E72DE9F041A3
:105030000546A1F114001F4616460C4606281DD24F
:10504000DFE800F01303050F1313012100E0002136
:105050002846FFF731FB31462846FFF73DFB01208C
:10506000EDE600212846FFF727FB3B463246214666
:105070002846D5F810C0BDE8F04160470020DEE6C4
:105080002DE9F0410546A1F114001F4616460C46D5
:1050900006281BD2DFE800F01103030D11110021D7
:1050A0002846FFF709FB31462846FFF715FB01208C
:1050B000C5E601212846FFF7FFFA3B463246214666
:1050C0002846D5F810C0BDE8F04160470020B6E69C
:1050D0002DE9F0410546A1F114001F4616460C4685
:1050E00006281DD2DFE800F01303050F131300217B
:1050F00000E001212846FFF7DFFA31462846FFF796
:10510000EBFA01209BE601212846FFF7D5FA3B4642
:10511000324621462846D5F810C0BDE8F041604728
:1051200000208CE62DE9F0410646A1F1140015019E
:105130009846144602F0F00706286AD2DFE800F02D
:1051400062031A276262F8213046FFF7C5FA01228E
:105150002C21304600F0B2FD39463046FFF7BCFA4C
:1051600001222C21304600F0A9FDE9B23046FFF7BC
:10517000B3FA40E0F8213046FFF7AEFA3946304640
:10518000FFF7AAFAE9B23046FFF7A6FA38E0FA21AB
:105190003046FFF7A1FA01222C21304600F08EFDA7
:1051A000454615E0FE49082015F8012B02F0F003F2
:1051B000120101F8013B401E01F8012B10F0FF0025
:1051C000F2D1083CE4B2F64A10213046FFF77CFAEF
:1051D000082CE7D20DE02F78304607F0F001FFF7FA
:1051E0007BFA3807010E3046FFF776FA641EE4B208
:1051F0006D1C002CEFD101222C21304600F05EFD09
:1052000001201CE6356922463046AC46BDE8F04137
:105210006047002013E670B50646A1F1140014465D
:10522000062833D2DFE800F024030312222230469E
:10523000FFF759FA00213046FFF74EFA2146304673
:10524000FFF74AFA3046FFF756FA0FE01D4606E030
:105250001821304600F012FA183CE4B21835182C28
:105260002A46F5D82146304600F008FA012070BDE4
:1052700096F82400FF2802D1782086F824003569AA
:1052800022463046AC46BDE870406047002070BD05
:105290002DE9F041DFF80C8314460646A1F1140213
:1052A000002798F800001D46062A49D2DFE802F0E0
:1052B0002F03161B3E4210B13046FFF71CFA304652
:1052C000FFF711FA00213046FFF706FA2146304673
:1052D000FFF702FA012088F8000029E02146304655
:1052E000FFF7FAF924E050B13046FFF704FA06E080
:1052F0001821304600F0C2F9183CE4B21835182CD9
:105300002A46F5D82146304600F0B8F90EE096F866
:105310002400FF2802D1782086F8240037692B4624
:1053200022463046BC46BDE8F041604788F8007030
:10533000012084E50028F9D03046FFF7DCF9F5E7D5
:1053400000207CE570B50646A1F11400144606283D
:1053500038D2DFE800F02903081727273046FFF787
:10536000C2F9002103E03046FFF7BDF94021304685
:10537000FFF7B2F921463046FFF7AEF93046FFF7A6
:10538000BAF90FE01D4606E01821304600F076F924
:10539000183CE4B21835182C2A46F5D82146304678
:1053A00000F06CF9012070BD96F82400FF2802D1AE
:1053B000782086F82400356922463046AC46BDE8A0
:1053C00070406047002070BD2DE9F0410446A1F116
:1053D0001400744F154606284BD2DFE800F0330363
:1053E00012174143787810B12046FFF784F9204620
:1053F000FFF779F929462046FFF76EF9012078700A
:1054000035E029462046FFF767F930E01E4610E0F8
:10541000182217212046B847183DEDB2204618360D
:10542000FFF769F92046FFF75EF908212046FFF7EC
:1054300053F92769182D3346EAD82A461721204602
:10544000B84714E094F82400FF2802D1602084F8C3
:10545000240026692A462046B446BDE8F04160474C
:105460000020CCE7787810B12046FFF744F90120FE
:10547000E5E40020E3E42DE9F0470446A1F114003F
:1054800000260127DFF81C8199461546062865D2BB
:10549000DFE800F04903031C575C98F8020028B1CC
:1054A00098F8030058B12046FFF725F994F8240036
:1054B00000F0FC0084F824002046FFF714F9294688
:1054C0002046FFF709F988F802703CE098F80200DE
:1054D00028B198F8030060B92046FFF70CF994F85A
:1054E000240000F0FC00801C84F824002046FFF714
:1054F000FAF888F802704E460CE018221721204670
:10550000B847183DEDB220461836FFF7F4F82046AC
:10551000FFF7E9F82769182D3346EED82A461721F8
:105520002046B8470FE094F82400FF2802D17020ED
:1055300084F8240026692A462046B446BDE8F04790
:10554000604788F802600120BDE8F08798F8020003
:105550000028F6D02046FFF7CEF8F2E70020F3E768
:105560002DE9F0470446A1F1140001260D4D99469E
:1055700017464FF0000806287ED2DFE800F06303EC
:1055800020387276287920B1687980B12046FFF7FB
:10559000B2F894F8240000F0FC0084F8240003E042
:1055A000BC060020380100202046FFF79CF8394651
:1055B0002046FFF791F82E7185F8058053E0287991
:1055C00020B1687960B92046FFF795F894F8240077
:1055D00000F0FC00801C84F824002046FFF783F8CC
:1055E00039462046FFF778F82E716E713BE0287936
:1055F00020B1687960B92046FFF77DF894F824005F
:1056000000F0FC00801C84F824002046FFF76BF8B3
:105610002E716E714D460CE0182217212046B047BE
:10562000183FFFB220461835FFF765F82046FFF710
:105630005AF82669182F2B46EED83A4617212046ED
:10564000B04710E094F82400FF2802D1782084F8B5
:10565000240025693A462046AC46BDE8F04760473D
:105660000AE085F8048001206EE728790028F8D048
:105670002046FFF740F8F4E7002065E72DE9F04108
:1056800015460E460446FFF72EF840212046FFF748
:1056900023F827692B46324617212046B847204673
:1056A000BDE8F041FFF727B810B5CC085C4302EB2A
:1056B000C40201F00701105C01228A40104000D0B2
:1056C000012010BD594389B2114401EBD00100F013
:1056D000070209788020D040014201D100207047A4
:1056E0000120704770B5064614460D4655A0A047E8
:1056F000F00000F03EFBA04753A0A047E80000F0F8
:1057000038FBA047A446BDE870404FA060472DE994
:10571000F05F8A464FF6FF719946834601EACA0652
:1057200001EAC2070025DDF8288016E000240DE01C
:1057300053465A4629462046CC46E04708B143A086
:1057400000E043A041468847641CA4B2B442EFD3B2
:105750003DA0414688476D1CADB2BD42E6D3BDE8D1
:10576000F09F70B5064614460D463AA0A047F000DB
:1057700000F0FFFAA04734A0A0473BA0A047E800F4
:1057800000F0F7FAA04730A0A047A446BDE870405B
:105790003AA060472DE9FF4F81B000208DF801004D
:1057A0004FF6FF7102980E9C994601EAC00A01EA81
:1057B000C20B4FF00008002600252F466806050E94
:1057C000F01BDDE90123C01D80B24146CC46E04715
:1057D00008B145F001057F1CFFB2082FEED331A0C0
:1057E000A0472809C1B28DF80000092901D830303E
:1057F00000E057308DF800006846A04705F00F0024
:105800008DF80000092801D8303000E057308DF8BD
:1058100000006846A0470836B6B2564502D222A01C
:10582000A047C9E708F101001FFA80F8D84504D263
:105830001DA0A04704A0A047BDE71CA0A04705B03D
:10584000BDE8F08F50310A000A000000310000006E
:105850003000000023646566696E652078626D5FC4
:10586000776964746820000023646566696E65204A
:1058700078626D5F6865696768742000737461742D
:10588000696320756E7369676E6564206368617211
:105890002078626D5F626974735B5D203D207B0AD6
:1058A00000000000307800002C0000007D3B0A0062
:1058B0002DE9F0411E46144605460B2908D00D2956
:1058C0000ED00E291ED00F2927D00020BDE8F08170
:1058D0001AB19049FFF7FEFA4AE08E49491FF9E7ED
:1058E0004AB18C490C31FFF7F5FA286890F813009B
:1058F00085F822003CE08749491DFFF7EBFA28684C
:10590000807CF5E7FFF7A5FA81212846FFF776FAB4
:1059100021462846FFF77AFA27E0FFF79AFA7079CE
:1059200095F8221001EBC000C7B240212846FFF7CE
:1059300065FA102040EA17112846FFF75FFA07F0D2
:105940000F012846FFF762FAB07940F0B00128460F
:10595000FFF75CFA30793268C006010E2846FFF77F
:1059600070FA641E14F0FF04F4D12846FFF779FAA8
:105970000120ABE770B50C460546FFF799FF98B9D3
:10598000092C0CD00A2C01D0002070BD284600F054
:10599000CAF8604928462131FFF79CFA04E05D49C6
:1059A0002846EF3100F0BAF8012070BD10B504466A
:1059B000092921D00A2917D00D2903D0FFF778FF34
:1059C000012010BD4AB153491A31FFF783FA20680C
:1059D00090F8130084F82200F2E74E491331FFF7E4
:1059E00079FA2068807CF5E700F09DF84949204667
:1059F0002131FFF76FFAE3E74649EF3100F08EF807
:105A0000DEE770B50C460546FFF752FF98B9092C42
:105A10000CD00A2C01D0002070BD284600F083F87D
:105A20003C4928465631FFF755FA04E039492846E3
:105A3000EF3100F073F8012070BD70B50C460546DB
:105A4000FFF736FF98B9092C0CD00A2C01D00020A2
:105A500070BD284600F067F82E4928468B31FFF7C5
:105A600039FA04E02B492846EF3100F057F80120BD
:105A700070BD70B50C460546FFF71AFF90B9092CAA
:105A80000CD00A2C01D0002070BD284600F04BF845
:105A9000204928462131FFF71DFA03E01E49284618
:105AA00000F03CF8012070BD70B50C460546FFF7CC
:105AB000FFFE90B9092C0CD00A2C01D0002070BD3B
:105AC000284600F030F8134928465631FFF702FA0D
:105AD00003E01149284600F021F8012070BD70B59F
