:020000040800F2
:10000000900B0020ED0C0008090400080B04000808
:100010000D0400080F04000811040008000000008F
:1000200000000000000000000000000013040008B1
:100030001504000800000000170400081904000857
:10004000070D0008070D0008070D0008070D000840
:10005000070D0008070D0008070D0008070D000830
:10006000070D0008070D0008070D0008070D000820
:10007000070D0008070D0008070D0008070D000810
:10008000070D0008070D0008070D0008070D000800
:10009000070D0008070D0008070D0008070D0008F0
:1000A000070D0008070D0008070D0008070D0008E0
:1000B000070D000863080008070D0008070D000879
:1000C000070D0008070D0008070D0008070D0008C0
:1000D000070D0008850C0008070D0008070D000833
:1000E000070D0008070D0008070D0008070D0008A0
:1000F000070D0008070D0008070D0008070D000890
:10010000070D0008070D0008070D0008070D00087F
:10011000070D0008070D0008070D0008070D00086F
:10012000070D0008070D0008070D0008070D00085F
:1001300000F002F800F03FF80AA090E8000C8244BA
:100140008344AAF10107DA4501D100F034F8AFF297
:10015000090EBAE80F0013F0010F18BFFB1A43F0A5
:1001600001031847085D0000285D0000103A24BF15
:1001700078C878C1FAD8520724BF30C830C144BF0C
:1001800004680C607047000000230024002500264E
:10019000103A28BF78C1FBD8520728BF30C148BFEA
:1001A0000B607047642904F09B87002070471FB5DF
:1001B0001FBD10B510BD05F092F81146FFF7F7FF0F
:1001C00000F008F805F0B0F803B4FFF7F2FF03BC45
:1001D00000F002FDA8B04FF4A06001F0CBF900F0F0
:1001E000AFFC00F011FB00F0C3F900F0D1FB00F010
:1001F00037FC04F0B1FE684604F00DFF7249684612
:1002000002F031FD684602F0C1F80F226FA31146DB
:10021000684602F029FC684602F0E8F800F029FA86
:1002200048B16EA31E220F21684602F01DFC6846ED
:1002300002F0DCF805E06CA31E220F21684602F0F4
:1002400013FC684602F0D2F800F035FA0E21684837
:1002500000F0B2FA60B1684602F098F865A32D226A
:100260000F21684602F000FC684602F0BFF8EDE797
:10027000634D0120287000206880684602F086F8EF
:100280005B4C60A125A8227804F0E2FE25AB2D226C
:100290002821684602F0E8FB62785AA125A804F0FC
:1002A000D7FE25AB3C222821684602F0DDFBA27870
:1002B00054A125A804F0CCFE25AB0F223C216846B2
:1002C00002F0D2FBE2784FA125A804F0C1FE25ABD5
:1002D0001E223C21684602F0C7FB227949A125A8CD
:1002E00004F0B6FE25AB2D223C21684602F0BCFB93
:1002F000627944A125A804F0ABFE3C2225AB11464F
:10030000684602F0B1FBA2793EA125A804F0A0FE48
:1003100025AB0F224621684602F0A6FBE27939A1FF
:1003200025A804F095FE25AB1E224621684602F062
:100330009BFB227A33A125A804F08AFE0F2225AB6D
:100340001146684602F090FB627A2EA125A804F0BF
:100350007FFE25AB1E220F21684602F085FBA27AA4
:1003600028A125A804F074FE25AB2D220F21684694
:1003700002F07AFBE27A23A125A804F069FE25ABFE
:100380003C220F21684602F06FFB227B1DA125A8AD
:1003900004F05EFE25AB0F222821684602F064FBC4
:1003A000627B18A125A804F053FE25AB1E2228214C
:1003B000684602F059FB684602F018F82978204692
:1003C00000F059FB42E700004E530008322E34473C
:1003D0002072656365697665000000004E52462014
:1003E0004552524F520000004E5246204F4B0000E3
:1003F000480000206E6F20726563656976650000B5
:1004000000000020256400007047FEE7FEE7FEE7DD
:10041000FEE7704770477047704700000CB5002139
:100420004B4801910091026842F4803202604FF41F
:10043000A063026802F400320092019A521C0192F9
:10044000009A12B9019A9A42F3D10268920333D505
:10045000012100913F490A6842F010020A600A68CF
:1004600022F003020A600A6842F002020A60416850
:10047000416041684160416841F480614160416888
:1004800021F47C114160416841F4E8114160016848
:1004900041F08071016001688901FCD5416821F05B
:1004A00003014160416841F0020141604168C1F3CC
:1004B00081010229FAD10CBD00910CBD244810B570
:1004C000016841F0010101604168234A1140416027
:1004D0000168224A11400160016821F48021016015
:1004E000416821F4FE0141604FF41F018160FFF774
:1004F00095FF1B494FF00060086010BD144910B50E
:100500004868184A10F00C03174803D0042B01D098
:10051000082B0AD002604968134AC1F30311121D67
:10052000515C0268CA40026010BD4A684B6802F420
:1005300070124FF0020413F4803F04EB924202D099
:100540004B689B0301D5094B00E0064B5A43E1E79A
:1005500000100240002002400000FFF8FFFFF6FEFE
:1005600008ED00E000127A000400002000093D00C0
:1005700038B50121082000F01AFE4FF4A054ADF860
:10058000004010208DF8030003209A4D8DF80200E2
:100590006946284600F021FC2146284600F08DFCE3
:1005A000E814ADF8000028208DF8030069462846BD
:1005B00000F013FC00F09DF98F480021C0F8B01145
:1005C0000121C0F8A81138BD70B58B4C0E46002132
:1005D000C4F8A81104F5D47400F062F90546304659
:1005E00000F05EF901202060284670BD2DE9F04141
:1005F000814F002416460D46C7F8A84100F050F977
:10060000804605E015F8010B00F04AF9641CE4B2DD
:10061000B442F7D30120C7F8A8014046BDE8F081F5
:1006200010B5754C0021C4F8A81104F5D47400F07D
:1006300037F9FF2000F034F90121216010BD2DE9C8
:10064000F0416D4E002415468846C6F8A84100F0DA
:1006500027F9074606E0FF2000F022F908F8040019
:10066000641CE4B2AC42F6D30120C6F8A8013846B7
:10067000D4E71CB561A10024D1E90001CDE9000156
:10068000082000F078F9052269463020FFF7AEFF18
:10069000052269461020FFF7D2FF6846015D6629F2
:1006A00003D1641CE4B2052CF8D3052C01D0012041
:1006B0001CBD00201CBD10B54F4C0020C4F8B0017B
:1006C000052250492A2004F5D874FFF78FFF012135
:1006D0002120FFF779FF01212220FFF775FF282154
:1006E0002520FFF771FF0E213120FFF76DFF272135
:1006F0002620FFF769FF0F212020FFF765FF01206B
:10070000206010BD10B53C4C0020C4F8B0013D493C
:100710000522491F302004F5D874FFF767FF052232
:1007200038492A20FFF762FF01212120FFF74CFF03
:1007300001212220FFF748FF1A212420FFF744FF60
:1007400028212520FFF740FF27212620FFF73CFF27
:100750000E212020FFF738FF0120206010BD70B56A
:1007600006460D46082000F006F9234C0020C4F888
:10077000B0012A463146A020FFF738FF0120C4F817
:10078000B00100BFD4F82C010028FBD10720FFF7EF
:1007900047FF044601462720FFF716FFE00605D570
:1007A000FF21E120FFF710FF022070BDA00601D558
:1007B000002070BDFF2070BD70B506460D460820B4
:1007C00000F0D9F80720FFF72BFF04460146272049
:1007D000FFF7FAFE60060AD52A4631466120FFF788
:1007E0002EFFFF21E220FFF7EFFE002070BD012069
:1007F00070BD0000000C0140008021426666666604
:1008000066000000495300081FB50121022000F0D6
:10081000D7FC40F2E730ADF804004720ADF8000007
:1008200000201C4CADF80600ADF8020069462046D9
:1008300001F0CAF801221146204601F083FB1D2079
:100840008DF80C0001218DF80D108DF80E108DF82B
:100850000F1003A800F093FE0121204601F05DFB7C
:100860001FBD10B50B4C0121204601F080FD002872
:100870000FD00121204601F086FD07480188491C60
:1008800089B20180B1F5FA7F03D3002101800348CA
:10089000017010BD00040040020000200000002094
:1008A0002DE9F041002507462C46374E03E06D1C2C
:1008B000EDB2FA2D0FD80221304600F0C0FF00281B
:1008C000F5D039463546304600F075FF06E0641C29
:1008D000E4B2FA2C02D90020BDE8F08101212846BB
:1008E00000F0ADFF0028F2D0284600F066FFC0B24D
:1008F000F2E770B586B00121082000F058FC012114
:10090000880300F05DFC4FF46045ADF814501824E6
:100910008DF8174003201D4E8DF8160005A93046AE
:1009200000F05BFA2946304600F0C5FA0020ADF829
:100930000000ADF80800ADF80C404FF48271ADF83E
:100940000400ADF80210ADF80600ADF80E00711508
:1009500007200D4CADF80A10ADF81000694620468E
:1009600000F084FE0121204600F0FDFEFF20FFF78D
:1009700097FF06B070BD04490A8822F038020A8049
:100980000A8802430A80704700380040000C01408A
:1009900030B589B00121042000F009FC012108468E
:1009A00000F00EFC0320ADF81C0018218DF81F107C
:1009B0008DF81E0007A9294800F00FFA44F61F60C1
:1009C000ADF814004720ADF8100000244FF080452A
:1009D000ADF81640ADF8124004A9284600F0F4FF27
:1009E0006020ADF800000120ADF80840ADF802002D
:1009F0004FF47A74ADF806406946284601F01DF8B8
:100A00000821284601F067FBADF8064069462846F4
:100A100001F048F80821284601F06EFB0121284624
:100A200001F07BFA09B030BD4FF47A71884202D3ED
:100A30004900884200D9084601464FF0804001F045
:100A40006EBC4FF47A71884202D34900884200D9C3
:100A5000084601464FF0804001F063BC00080140A9
:100A600010B54FF47A742046FFF7DEFF2046BDE84C
:100A70001040FFF7E6BF2DE9F04104464FF47A76C7
:100A800031B1E07A4FF07608792806D3354612E086
:100A90003046FFF7C9FF304647E083220D2100F0C2
:100AA00048F8C0F183004FF47A714843B0FBF8F086
:100AB00000F57A7085B2207B0027A0F17A013C46D0
:100AC0003A4613291DD383280DD2C0F1830080B28A
:100AD0007622002100F02DF84FF4FA714843B0FB64
:100AE000F8F082B20DE0833880B27A22002100F063
:100AF00020F84FF4FA7148437A21B0FBF1F084B248
:100B00003A46A8184FF4FA6780B23A46314600F0E8
:100B100010F88046281980B23A46314600F009F8AC
:100B200004464046FFF780FF2046BDE8F041FFF74E
:100B300088BF884200D20846904200D910467047CC
:100B400010B56FF0040000F05AFD204820490068FD
:100B5000B0FBF1F0C1B21F4801EB41020170C2EBE2
:100B6000C1114FF6FF7202EAC101418010BD19495F
:100B7000097848434FF0E021486100228A61086902
:100B800040F0010008610869C30701D0C003FAD52D
:100B9000086920F0010008618A6170470D494988A1
:100BA00048434FF0E021486100228A61086940F023
:100BB000010008610869C30701D0C003FAD50869BC
:100BC00020F0010008618A617047000004000020E5
:100BD00000127A0018000020704740490A88520627
:100BE000FCD53E4AC1B2121D1180704770B5054652
:100BF00086B0012144F2040000F0D9FA4FF40070ED
:100C0000ADF8100003248DF812401820344E8DF8F2
:100C1000130004A9304600F0E0F83015ADF81000DC
:100C200004208DF8130004A9304600F0D6F82520E2
:100C30008DF814008DF815408DF8164001208DF8C0
:100C4000170005A800F09BFC0020ADF80400ADF8EB
:100C50000600ADF80800ADF80C000C201F4CADF8F4
:100C60000A0000956946204600F020FB012240F270
:100C70002551204600F097FB0121204600F089FB1A
:100C800006B070BD70B5154C40F22551204600F0FD
:100C900041FC00280ED0204600F0D5FBC2B211481E
:100CA00001880B0406D44C044FF0000306D50A2A31
:100CB00001D0038070BD41F400410DE00D2A09D040
:100CC000C1F30D04084D491C89B22A550180C7297A
:100CD000EFD870BD41F48041018070BD0038014003
:100CE000000801401C0000205600002009488047F1
:100CF00009480047FEE7FEE7FEE7FEE7FEE7FEE7FE
:100D0000FEE7FEE7FEE7FEE704480549054A064B15
:100D100070470000BD040008310100089005002064
:100D2000900B00209007002090070020914910B5FB
:100D3000884206D10121042000F04BFA0021042052
:100D40003BE08D49884206D10121082000F041FA9C
:100D50000021082031E08949884206D10121102074
:100D600000F037FA0021102027E08549884206D19B
:100D70000121202000F02DFA002120201DE08149D2
:100D8000884206D10121402000F023FA00214020B2
:100D900013E07D49884206D10121802000F019FA34
:100DA0000021802009E0794988420AD18415012177
:100DB000204600F00EFA00212046BDE8104000F069
:100DC00008BA10BD10B50121084600F002FA002152
:100DD000BDE81040012000F0FCB9F0B5CA7800254C
:100DE00002F00F03D20601D58A7813430A784FF038
:100DF0000F0E12F0FF0F4FF001021DD0D0F800408F
:100E00000F8802FA05F63740B74211D14FEA850C38
:100E10000EFA0CF724EA070703FA0CF43C43CF78E8
:100E2000282F02D0482F02D002E0466100E0066180
:100E30006D1C082DE4D304600C88FF2C1ED9446877
:100E40005FF0000606F1080702FA07F50F882F4049
:100E5000AF420FD14FEA860C0EFA0CF7BC4303FAEF
:100E60000CF73C43CF78282F00D14561CF78482F2D
:100E700000D10561761C082EE4D34460F0BD4FF626
:100E8000FF710180022181700421C1707047024608
:100E9000002092680A4200D001207047806880B22A
:100EA000704702460020D2680A4200D001207047F5
:100EB000C06880B2704701617047416170470AB1F4
:100EC0000161704741617047C160704741F48032F1
:100ED0008261816182618169806970472C4B10B5A4
:100EE0001A684FF68074224042EA001008431860E6
:100EF00010BD2849C8617047F0B5254C002801DABB
:100F0000E36900E06368420D120185B2C0F3015746
:100F10009540C0F30346032F05D0C2020AD5032231
:100F2000B240934307E023F07062636823F070637C
:100F3000636002E0AB4343F0706201B12A430028D2
:100F400001DAE261F0BD6260F0BD10B58A0721F000
:100F500003040F49130F21440F228C689A409443D5
:100F60008C608A68984002438A6010BD0949C1F8C4
:100F7000DC00704700080140000C014000100140F7
:100F80000014014000180140001C014000200140F5
:100F90000000014000002042A448016841F0010126
:100FA00001604168A24A114041600168A14A1140B4
:100FB0000160016821F480210160416821F4FE0193
:100FC00041604FF41F018160704798490A6822F41C
:100FD00080320A600A6822F480220A60B0F5803FFD
:100FE00007D0B0F5802F03D1086840F4A020086036
:100FF0007047086840F48030F9E702460020530942
:101000008A49012B0AD0022B0AD0496A02F01F023A
:10101000012393400B4200D0012070470968F5E797
:10102000096AF3E718B500204FF4A064009031205E
:10103000FFF7E3FF0099491C0091A14201D000286D
:10104000F5D03120FFF7D9FF002800D0012018BDCE
:1010500076490A6822F0F80242EAC0000860704748
:10106000754908607047714A5368084323F47C133C
:101070001843506070477049086670476B4A516862
:1010800021F003010143516070476848406800F057
:101090000C007047654A516821F0F001014351602E
:1010A0007047624A516821F4E06101435160704722
:1010B0005E494A6822F4605242EAC00048607047C4
:1010C0005A4A0029517A01D0014300E0814351720C
:1010D00070475949C1F8D8007047544A516821F403
:1010E00040410143516070475049002281F820205F
:1010F00081F82020012802D0042802D1052081F89F
:10110000200070474D490860704748490A6A024309
:101110000A627047494944390860704730B543490D
:101120004A6812F00C03464A03D0042B01D0082B66
:1011300021D002604A680F23424C03EA1212A35CDA
:101140000268DA4042604B68072505EA1323E35C36
:1011500022FA03F383604B6805EAD323E35CDA40A9
:10116000C2604968032303EA9131231F595CB2FB33
:10117000F1F1016130BD4A684B6802F470124FF022
:10118000020413F4803F04EB924202D04B689B03AD
:1011900001D52D4B00E02A4B5A43CAE7234A0029C8
:1011A000516901D0014300E08143516170471F4AFA
:1011B0000029916901D0014300E0814391617047AA
:1011C0001A4A0029D16901D0014300E08143D1616D
:1011D0007047164A0029D16801D0014300E08143DD
:1011E000D1607047114A0029116901D0014300E024
:1011F00081431161704711494039086070470E49B9
:10120000C86470470949C87170470848416A41F08D
:10121000807141627047054A0146002092680A4287
:1012200000D00120704701498872704700100240C9
:101230000000FFF8FFFFF6FE000042428004424239
:1012400000127A002200002000093D00C44910B5B8
:1012500088420AD101218C032046FFF7BAFF2046BD
:10126000BDE810400021FFF7B4BFBE49884202D15B
:1012700001214C0410E0BC49884202D101218C04B8
:101280000AE0BA49884202D10121CC0404E0B849FD
:1012900088420AD101210C052046FFF7A3FF204612
:1012A000BDE810400021FFF79DBF10BD30B50446DA
:1012B000008A85B00D464CF6FF710840E98801436D
:1012C0002182A1894EF6F3100140A8882A89104393
:1012D0006A890A431043A081A08A4FF6FF41084063
:1012E000A9890143A1826846FFF718FF9C48844200
:1012F00001D1039800E00298A189090400EBC00124
:1013000001EB0010296801D5490000E08900B0FB1D
:10131000F1F06422B0FBF2F109010B096FF018053E
:101320006B4300EB8300A3891D044FF0320306D505
:1013300003EBC000B0FBF2F000F0070005E003EBA8
:101340000010B0FBF2F000F00F000843208105B060
:1013500030BD4FF41651016000218180C1800181B0
:101360000C2242818181704710B5038A4FF2FF023F
:1013700013400A884C8822438C88C9880C43224336
:101380001A43028210BD0021018041808180C1800A
:1013900070470029818902D041F4005101E021F415
:1013A00000518181704710B5C1F3421301F01F0451
:1013B0000121A140012B07D0022B07D01430002AB5
:1013C000026805D00A4304E00C30F8E71030F6E775
:1013D0008A43026010BD002A828A01D00A4300E0DD
:1013E0008A4382827047028A22F00F020282028AB6
:1013F0000A4302827047828922F4006282818289D4
:101400000A43828170470029818902D041F002019C
:1014100001E021F0020181817047028A22F020025E
:101420000282028A0A43028270470029018A02D09E
:1014300041F4804101E021F4804101827047C1F311
:101440000801818070478088C0F308007047818957
:1014500041F0010181817047028BD2B20283028B7D
:1014600042EA012101837047028B02F47F4202832A
:10147000028B0A43028370470029818A02D041F01F
:10148000200101E021F02001818270470029818A3A
:1014900002D041F0100101E021F01001818270477B
:1014A0000029818A02D041F0080101E021F0080101
:1014B000818270470029818902D041F4004101E016
:1014C000C1F30E01818170470029818A02D041F465
:1014D000006101E021F4006181827047828A22F07C
:1014E00004028282828A0A43828270470029818AAA
:1014F00002D041F0020101E021F002018182704737
:101500000246002012880A4200D001207047C943D9
:101510000180704730B501F01F0201240025C1F39E
:10152000421304FA02F2012B0FD0022B0FD0838A50
:101530004FEA11210088134204FA01F400EA040082
:1015400001D000B10125284630BD8389F0E7038A28
:10155000EEE70A0A01219140C9430180704700006B
:10156000003801400044004000480040004C00406A
:10157000005000402849084328490860704770B56A
:101580000F23C47801780122F4B1244C24684578F3
:1015900004F4E064C4F5E064240AC4F10406E34002
:1015A0008478B5401C402C4301F1E021230181F8EF
:1015B0000034007800F01F018A404009800000F1EB
:1015C000E020C0F8002170BD01F01F0082404809F2
:1015D000800000F1E020C0F8802170BD104A114069
:1015E00001430E48001F016070470C4A121D00297C
:1015F000116801D0014300E08143116070474FF052
:10160000E0210428086903D020F004000861704735
:1016100040F00400FAE700000000FA050CED00E0DD
:1016200080FFFF1F994910B588420AD18414012117
:101630002046FFF7CEFD2046BDE810400021FFF711
:10164000C8BD9349884202D10121041404E09149A4
:1016500088420AD10121C4132046FFF7C3FD20466A
:10166000BDE810400021FFF7BDBD10BD30B50288B8
:101670004C8802F441530A88CD8822438C882C433D
:1016800022430C8922434C8922438C892243CC89F2
:1016900022431A430280828B22F400628283098AE9
:1016A000018230BDF0B505460C4602200021AA8B10
:1016B00085B001264FF240031A40AA832884AF8BDD
:1016C000A268022A27D0A08800B102266846FFF748
:1016D00025FDE1880098B1F5007F2DD07101B0FBA8
:1016E000F1F000BF00EB8000A1684000B0FBF1F01A
:1016F000401D80B20A21B0FBF1F000F00101401A58
:101700004FF6FF72C0F34F0002EA0121821EFE2A4B
:1017100001D302200021E288084302432A84208862
:101720006188A2890843A18811430843384340F4E3
:101730000060A88305B0F0BD000AD3E70021018056
:1017400041808180C180018141818181C1810721E6
:10175000018270470021018041808180C180022286
:101760008260818170470029018802D041F04001E8
:1017700001E021F04001018070470029818B02D0F7
:1017800041F4806101E021F480618183704709099F
:1017900001238B40002A828899B201D00A4300E0DD
:1017A0008A4382807047002A828801D00A4300E081
:1017B0008A43828070478181704780897047A1F594
:1017C0007E420188FF3A02D041F4807101E021F4A9
:1017D0008071018070470029818802D041F00401A6
:1017E00001E021F0040181807047028822F4006248
:1017F000028002880A4302807047018841F48051C8
:10180000018070470029018802D041F4005101E0B5
:1018100021F4005101807047012901D0008B7047ED
:10182000808A7047008A7047B1F5804F018803D0E5
:1018300021F480410180704741F48041FAE702467B
:10184000002012890A4200D001207047C94301815B
:10185000704710B501F00F040122034602FA04F4A8
:10186000002009098A4091B29A88A4B20A401989D5
:10187000214202D0002A00D0012010BD01F00F0249
:1018800001219140C94301817047000000300140AF
:1018900000380040003C0040F94910B5884202D1B0
:1018A0000121C41486E0B0F1804F09D0F549884287
:1018B0000DD101210220FFF795FC0021022064E0F8
:1018C00001210846FFF78EFC002101205DE0EE4972
:1018D000884206D101210420FFF784FC0021042066
:1018E00053E0EA49884206D101210820FFF77AFC3B
:1018F0000021082049E0E649884206D10121102054
:10190000FFF770FC002110203FE0E249884206D139
:1019100001212020FFF766FC0021202035E0DE4970
:10192000884202D10121441444E0DC49884202D1BA
:101930000121CC043EE0DA49884202D101210C05A4
:1019400038E0D849884202D101214C0532E0D6491D
:10195000884206D101214020FFF744FC00214020AD
:1019600013E0D249884206D101218020FFF73AFCDA
:101970000021802009E0CE4988420AD18415012146
:101980002046FFF72FFC00212046BDE81040FFF75E
:1019900029BCC849884202D101210C040AE0C64989
:1019A000884202D101214C0404E0C44988420AD192
:1019B00001218C042046FFF70CFC2046BDE81040B6
:1019C0000021FFF706BC10BD30B50288AC4BB24C0D
:1019D00098420DD0A0420BD0B0F1804F08D0A94D55
:1019E000A84205D0A84DA84202D0A84DA84203D1D4
:1019F00022F070054A882A43A54DA84206D0A54D7D
:101A0000A84203D022F44075CA882A4302808A88FB
:101A100082850A88028598420AD0A04208D0A54A49
:101A2000904205D0A44A904202D0A44A904201D1EB
:101A3000097A01860121818230BD30B5028C22F005
:101A400001020284028C8388048B22F0020224F0BB
:101A500073050C882C430D8915434A882A43884D09
:101A6000A8420BD08C4DA84208D0924DA84205D078
:101A7000914DA84202D0914DA8420DD122F0080507
:101A80004A8923F440732A4322F004058A882A43B2
:101A90008D891D43CB892B4383800483C98881862C
:101AA000028430BD70B5028C22F010020284028CD8
:101AB0008488038B0D8823F4E6464FF6FF7303EA10
:101AC000052535430E8922F0200203EA0616164347
:101AD0004A8803EA02123243694EB04202D06E4E87
:101AE000B04215D122F080064A8924F4406403EA0A
:101AF0000212324322F040068A8803EA021232437D
:101B00008E8903EA86062643CC8903EA840434439B
:101B100084800583C9880187028470BD70B5028CFA
:101B200022F480720284028C8488838B0D8823F0D7
:101B300073031D4322F400730E894FF6FF7202EA0D
:101B400006261E434B8802EA032333434C4EB04221
:101B500002D0514EB04215D123F400664B8924F4D3
:101B6000405402EA0323334323F480668B8802EA5D
:101B7000032333438E8902EA06162643CC8902EA00
:101B80000414344384808583C9888187038470BDAD
:101B900070B5028C22F480520284048C8288838B7C
:101BA0000D8823F4E6464FF6FF7303EA0525354317
:101BB00024F400560C8903EA043434434E8803EAC3
:101BC000063626432E4CA04202D0334CA04205D10B
:101BD00022F480448A8903EA821222438280858328
:101BE000C988A0F84010068470BD828B22F4406240
:101BF0008283828B4FF6FF7303EA01210A438283BB
:101C00007047828B22F00C028283828B0A4382838C
:101C10007047028B22F440620283028B4FF6FF73FF
:101C200003EA01210A4302837047F0B5048C24F0D3
:101C300010040484078B048C4FF6FF7527F4734758
:101C400005EA03333B4305EA02221A430C4B05EA3B
:101C5000011698420ED0104B98420BD0B0F1804F35
:101C600008D0084B984205D0074B984202D0074B4A
:101C7000984225D124F02001314341F0100124E0A5
:101C8000002C01400004004000080040000C00400F
:101C9000001000400014004000340140004C01409E
:101CA000005001400054014000180040001C00405A
:101CB0000020004000400140004401400048014035
:101CC00024F0A0030B4343F0100102830184F0BD14
:101CD000028B22F00C020283028B0A4302837047BC
:101CE00070B5048C24F001040484058B048C4FF639
:101CF000FF7606EA0313134325F0F305F94A2B4355
:101D000090420ED0F84A90420BD0B0F1804F08D0EC
:101D1000F64A904205D0F64A904202D0F54A9042E7
:101D200002D124F0020201E024F00A020A4342F048
:101D300001010383018470BD2DE9F05F0D46044667
:101D40000888E84FDFF8A0C3DFF8A0834988AA8895
:101D50002B894FF0804960B3042832D04FF6FF7EC4
:101D6000082836D0208C9B4620F480502084A38BFA
:101D7000268C704600EA022223F473431A4300EAD9
:101D80000B3010430EEA013EBC420BD0644509D033
:101D90004C4507D0444505D0D54A944202D0D54B96
:101DA0009C4245D126F4005141EA0E0141F4805194
:101DB00043E02046FFF794FFE9882046BDE8F05F46
:101DC00086E72046FFF731FFE9882046BDE8F05F4F
:101DD0001FE7208C20F480702084B4F81CA0208C95
:101DE0000EEA031313432AF0F30A0EEA012B43EA27
:101DF0000A03BC420BD0644509D04C4507D044458A
:101E000005D0BB4A944202D0BA4A944204D120F48D
:101E1000007040EA0B0002E020F42060084340F428
:101E20008070A3832084E9882046BDE8F05FE8E65F
:101E300026F402420A4342F48051A08320462184C2
:101E4000E988BDE8F05FD0E62DE9F0410C460026B8
:101E500049880746012501B90226A288012A00D136
:101E60000225208823890028384610D0FFF7DDFEA0
:101E7000E1883846FFF7CDFE23892A4631463846A9
:101E8000FFF72EFFE1883846BDE8F04120E7FFF775
:101E900027FFE1883846FFF71BFF23892A46314692
:101EA0003846FFF7C2FEE1883846BDE8F041B0E6AB
:101EB00010B50A884B88CC881A438B8823431A4371
:101EC0000B891A434B8989891A430A43A0F8442095
:101ED00010BD4FF6FF71818000210180C1804180DB
:101EE000017270470021018041808180C1800181A1
:101EF00041818181C181704700210180418001229F
:101F00008280C180018170470021018041808180F1
:101F1000C18001814181818170470029018802D0FF
:101F200041F0010101E021F0010101807047002929
:101F300030F8441F02D041F4004101E0C1F30E012A
:101F400001807047002A828901D00A4300E08A4359
:101F500082817047818270471143A0F84810704712
:101F6000002A828901D00A4300E08A4382817047B7
:101F7000018921F0070101817047028922F0700276
:101F80000A430281704700B50346FFF7F6FF188940
:101F900040F00700188100BD70B516460D46602957
:101FA00004464FF0010231460AD0FFF799FE294658
:101FB0002046FFF7E2FF208940F00700208170BD36
:101FC000FFF733FEF3E730B504894FF6FF7505EAF6
:101FD00003231343E4B20B432343038130BD10B505
:101FE0000446FFF7F0FF208940F07700208110BD04
:101FF00010B50446FFF7E7FF208940F480402081B8
:1020000010BD018582827047028822F070020A4367
:102010000280704770B50589048B068C25F0070592
:102020000D434FF6FC410C4040F201110C434FF6BA
:10203000FF7101EA031126F02206114331430581A5
:102040000483018470BD028B22F070020A43028374
:102050007047028B4FF6FF7322F4E04203EA01213E
:10206000114301837047828B22F070020A438283FE
:102070007047828B4FF6FF7322F4E04203EA01219E
:102080001143818370470029018802D041F080010B
:1020900001E021F08001018070470029818802D091
:1020A00041F0040101E021F0040181807047002922
:1020B000818802D041F0080101E021F0080181800F
:1020C00070470029818802D041F0010101E021F030
:1020D000010181807047028B22F008020A430283CB
:1020E00070470000002C0140003401400004004013
:1020F00000080040000C0040028B4FF6FF7322F4F2
:10210000006203EA012111430183E9E7828B22F097
:1021100008020A438283E3E7828B4FF6FF7322F4BF
:10212000006203EA012111438183D9E7028B22F087
:1021300004020A430283D3E7028B4FF6FF7322F4B3
:10214000806203EA012111430183C9E7828B22F0F7
:1021500004020A438283C3E7828B4FF6FF7322F4A3
:10216000806203EA012111438183B9E7028B22F0E7
:1021700080020A430283B3E7028B4FF6FF73C2F378
:102180000E0203EA012111430183A9E7828B22F0A9
:1021900080020A438283A3E7828B4FF6FF73C2F368
:1021A0000E0203EA01211143818399E7028C22F098
:1021B00002020A43028493E7028C22F008020A43D7
:1021C00002848DE7028C4FF6FF7322F0200203EAAF
:1021D00001111143018483E7028C4FF6FF7322F053
:1021E000800203EA01111143018479E7028C4FF662
:1021F000FF7322F4007203EA0121114301846FE7A7
:10220000028C4FF6FF7322F4006203EA01211143AE
:10221000018465E7028C4FF6FF7322F4005203EA53
:102220000131114301845BE710B50123048C8B401D
:102230009C430484038C8A401343038410BD10B56F
:102240000423048C8B409C430484038C8A401343F6
:10225000038410BD30B50124058C00F118038C40B7
:10226000A543058489B108290FD0091FC1F34E0089
:102270001844016821F4E041016001684FF6FF73E2
:1022800003EA02221143016030BD03EB51000168F3
:1022900021F0700101600168F4E70029018802D093
:1022A00041F0020101E021F00201018018E700295C
:1022B000018802D041F0040101E021F00401018015
:1022C0000EE70029818802D041F0800101E021F071
:1022D0008001818004E7028822F0080202800288DF
:1022E0000A430280FCE6828822F0700282808288A3
:1022F0000A438280F4E6028922F007020281028901
:102300000A430281ECE6028922F0800202810289FE
:102310000A430281E4E68184E2E68185E0E6818683
:10232000DEE60187DCE68187DAE6A0F84010D7E632
:10233000028822F44072028002880A430280CFE6BB
:10234000808ECDE6008FCBE6808FC9E6B0F84000E6
:10235000C6E6808CC4E6008DC2E602460020128AE2
:102360000A4200D00120BBE6C9430182B8E602461A
:102370000020138A92890B4202EA010202D0002A4D
:1023800000D00120ACE6C9430182A9E601680A7CBD
:1023900090F83810406B5143C90002F0DDBE2DE9C2
:1023A000F843064690F8387090F8395000680024D9
:1023B0004FF6FF7890F81190316830462A460B7C32
:1023C000716B04FB03FC1FFA8CFC08EACC0C614423
:1023D0000091002102F0B9FC641C6D1CE4B2EDB266
:1023E000BC4201D24D45E7D3BDE8F88310B50446A1
:1023F000FFF7D5FF2046BDE8104002F0EDBC10B558
:10240000044680F83910006B016820468847206B2D
:1024100041682046BDE81040084710B5044690F8D2
:10242000930010B12046FFF7B1FF2046BDE81040F1
:102430000021E4E770B50446FFF7B1FF94F83900D6
:1024400094F838100844C5B22068407CA84204D8EB
:10245000204602F0C1FC002070BD94F8930010B13A
:102460002046FFF793FF29462046FFF7C8FF0120CB
:1024700070BD2DE9F84F04468946216890F8380070
:102480000A9E497C9A461546884215D1606BB4F87D
:102490003A8000EBC90008FB05070BE053462A46CB
:1024A00049462046009702F050FC6D1C761E4744BA
:1024B000EDB2F6B2002EF1D1BDE8F88F6FE738B576
:1024C0000D46044690F8381000682A46007C02F059
:1024D000EBF90095206894F83820214B017C606B63
:1024E00002F0F7F938BD38B50D46044690F83810BB
:1024F00000682A46007C02F016FA0095206894F8DD
:102500003820174B017C606B02F026FA38BD38B5D5
:102510000D46044690F8381000682A46007C02F008
:10252000C3F90095206894F838200E4B017C606B4D
:1025300002F0CFF938BD38B50D46044690F8381092
:1025400000682A46007C02F0EEF90095206894F8B5
:102550003820044B017C606B02F0FEF938BD0000AE
:102560006D4800088948000808210170004870473C
:102570001E0100207CB50C46009313460546084A10
:10258000084902F0A4FC01A8FFF7EEFF0146064B44
:1025900000949DF80420284600F0AEFD7CBD0000AC
:1025A00055440008394B0008B92F000870B505469E
:1025B00008782870487868708878A870C878E870BB
:1025C000087928714879687188790C46A871E07992
:1025D000E871207A2872607A6872A07AA872E07A2C
:1025E000E872207B2873607B6873A07BA873E07B14
:1025F000E873207C28741121204600F0C1FB68821A
:102600001321204600F0BCFBA8821521204600F0D3
:10261000B7FBE88270BD70B5054600F1170460781D
:1026200008B10444FBE7A41C0021204600F0A8FBED
:1026300020444FF6FF73017803EA012241781143E9
:1026400002D081780844F6E7401B801C70BD90F8EA
:102650007D00704790F87E00704790F97F007047CA
:1026600090F98000704790F88100704730B5056898
:10267000047B2A78E2406318DBB2082B09D36D1C77
:1026800005602D78C4F10804A5401543083BEAB263
:10269000DBB201248C40641E14400373204630BD1D
:1026A00010B50C46FFF7E2FF0122641EA240801A1B
:1026B00040B210BD2BB1012B05D0022B06D0401A21
:1026C00002E0104400E0084480B27047801AFBE743
:1026D0002BB1012B05D0022B06D0104402E0084498
:1026E00000E0801A80B27047401AFBE72DE9F74FEF
:1026F00082B00D46029C94F8687094F8698060344A
:10270000A07AC01BC6B2B346B54200D2AB464FFA60
:1027100088F279B2A088B4F806A0237C91468C4652
:10272000FFF7D6FF0190237C4A4661465046FFF7EB
:10273000C1FF0246049808B1A17B02E0607B50B95A
:10274000E17B02985B4680F89210207C0090DDE9E6
:10275000011000F04AFBB54207D3A81BC5B208F12F
:102760000100002700F0FF08CAE77819207284F8FA
:10277000098005B0BDE8F08F30B5054600F1600472
:1027800001660020207315F8781F2046FFF76EFFC2
:10279000A07269782046FFF769FFE072A87EA073F7
:1027A00010B10020E07330BD0120FBE72DE9F843B4
:1027B000054600F16004FFF7DFFF15F96B6F204657
:1027C000E97BFFF76DFF8446297C2046FFF768FF11
:1027D0000746697C20466B3DFFF762FF804694F90F
:1027E0000A00002857DDF019404247B2237CA08838
:1027F0003A466146FFF76CFFA080237C3A46E088AA
:102800006146FFF757FFE080A188277C02460B4610
:1028100037B1012F0AD0022F40D0032F0FD146E04D
:1028200094F90A7030443B449BB207E0891B491C71
:1028300094F90A705B1C89B29BB2384480B2009054
:10284000284600F05EFB30B30020207284F80900B7
:1028500095F876102046FFF709FF814695F8771026
:102860002046FFF703FF0746002249462846FFF7A8
:102870003DFF012239462846FFF738FF0121204657
:10288000FFF7F4FE0028EFD194F90900B042DFDB36
:10289000A07B85F892004046BDE8F88394F90A7061
:1028A0005B1CC91B491C89B29BB2921B04E094F9C2
:1028B0000A7033449BB2D21B521C92B2401CBDE73B
:1028C00070B50D460146806D1730FF2D10D8612D73
:1028D00002D3B1F8881003E0412D02D3B1F886107D
:1028E0000844417819B30278AA42F9D1801C70BD1E
:1028F000B1F88A100C1826460021304600F040FA44
:1029000004440221304600F03BFA361DA842F3D3BE
:102910004FF6FF72207802EA00216078084306D063
:10292000A84201D1E01C70BDA0780444F2E7002069
:1029300070BD10B5FFF7C4FF002800D0012010BD06
:1029400070B50446FFF7BCFF010015D02046FFF725
:1029500013FF04F1600094F87A100546FFF7A0FE1B
:1029600084F8900014F87B1F2846FFF799FE6178E1
:102970002846BDE8704093E6002070BD80F86D10D9
:1029800070472DE9F041044690F870001F46154647
:102990000E4630B1012809D002280CD0032815D1E9
:1029A0000FE0E16D20468847284408E0E16D2046AD
:1029B0008847301A09E0E16D20468847281A85B219
:1029C00004E0E16D20468847304486B22846A4F8EA
:1029D0006460A4F86600394600252046FFF770FFC2
:1029E000010003D02046FFF7E1FE85B22846BDE88E
:1029F000F0812DE9F0471C4691468846064600F0D6
:102A0000DCFD00254FF6FF7772682178304690474D
:102A10000346B84225D0641CA3F57F40FE38F3D0AE
:102A20004A4641463046FFF7ACFF96F8701031B188
:102A3000012907D0022908D003290FD10AE008EBA9
:102A4000000104E009EB000106E0A8EB00011FFA19
:102A500081F803E0A9EB00011FFA81F9284485B24F
:102A6000D2E72846BDE8F08730B4CA4C446030BC99
:102A7000BFE730B4C84C446030BCBAE72DE9FF5F13
:102A80008B46C5490F9F80464FF6FF7A416000F0A4
:102A900094FD0026D8F80420397840469047A0F5E8
:102AA0007F410446FF3936D07F1CA4F57F40FE38B5
:102AB000F0D021464046FFF743FF85B2039870B13E
:102AC0005346224640460E9900F032FA8146A5EB65
:102AD000090085B2ABEB05001FFA80FB09E0234635
:102AE000524640460E9900F023FA8146A5EB0900B4
:102AF00085B2A246534659464046029AFFF741FF27
:102B0000039828B90BEB0500A0EB09001FFA80FB26
:102B1000701986B2BEE7304604B0BDE8F09F2DE9DB
:102B2000FF5F8A469C490F9F4FF6FF748046A1467F
:102B3000416000F042FD0026A346D8F80420397811
:102B400040469047044658452FD07F1CA4F57F404F
:102B5000FE38F2D021464046FFF7F2FE85B20398D8
:102B600068B14B46224640460E9900F00BFA281AEF
:102B700085B2AAEB050080B28246A1460CE023464E
:102B80004A4640460E9900F0FDF9281A85B20AEB34
:102B9000050080B2A146824601464B464046029A55
:102BA000FFF7EFFE701986B2C7E73046B4E710B5FD
:102BB000816D00291AD090F9813080F88E3090F91B
:102BC000822080F88F2090F88D1000290ED00129E6
:102BD0000DD090F97E4090F980100C449C4201DDAC
:102BE00080F88E408A4201DD80F88F1010BD90F988
:102BF00083108B4201DA80F88E1090F98410F1E78F
:102C0000002180F88D10D2E7012180F88D10CEE7E9
:102C1000022180F88D10CAE700207047AFF207014B
:102C2000C165704790F98F0080B27047AFF20B0119
:102C3000C165704790F98E00401C80B27047AFF2BA
:102C40000B01C165704710F88E2F4178501A40B2C1
:102C500000EBD07001EB600040B280B27047AFF281
:102C60001901C165704710B50446806D884208D0CF
:102C700004F17400A165FFF799FC2046BDE81040FF
:102C800095E710BD2DE9F041434A05460C464260E8
:102C900000F093FC4FF6FF76771E6A68217828468D
:102CA00090470146B04208D0641CB942F5D028468E
:102CB000FFF706FE0028F0D199E6012097E62DE9FE
:102CC000F0470546002085F86A0088466FF03F0609
:102CD000284600F072FC002427464FF6FF794FF695
:102CE000FE7A00BF6A6898F80010284690470146AF
:102CF00048450FD008F101085145F3D02846FFF7A9
:102D00001FFE87B216F1400F01D195F99060E019CE
:102D100084B2E7E795F96A1049B1E01B084495F9D8
:102D20009010002E084484B201DDA01984B2204620
:102D300098E670B5002504460978FFF7C1FD01004B
:102D400013D02046FFF718FD04F1600094F87A10C4
:102D50000646FFF7A5FC054614F87B1F3046FFF733
:102D60009FFC61783046FFF79BFC284670BD094AFE
:102D70004260A4E7084A4260A1E780F870107047FB
:102D800008444FF6FF720178407802EA01210844B6
:102D900080B27047C3350008D135000830B50488CB
:102DA0000D882544ADB2AC4205D99C4202D25D1ECD
:102DB000ADB200E014469C4201D2954201D80020F9
:102DC00030BD944200D214469D4200D91D46048075
:102DD000281B0880012030BD38B5C58F049C0094A5
:102DE000521BC46A92B2A04738BD3FB581B00446B9
:102DF00090F88C000899002839D0BDF81000002800
:102E000035D0012811D9022902D0032907D00CE0BE
:102E1000BDF80820101A401CADF8080005E0BDF808
:102E20000C20101A401CADF80C0011F0010520D048
:102E3000B4F84810BDF80800814218D8B4F84A1018
:102E4000814214D9B4F84E30B4F84C2004A903A838
:102E5000FFF7A4FF00280AD00095206BBDF81030C2
:102E6000BDF80C208568BDF808102046A84705B0BD
:102E700030BDB4F84C10BDF80C008142F7D8B4F85E
:102E80004E108142F3D9B4F84A30B4F8482004A96E
:102E900002A8DDE738B500240094FFF7A6FF38BD8F
:102EA00038B501240094FFF7A0FF38BD08B5B0F88D
:102EB0004C30934210D8B0F84E3093420CD9B0F851
:102EC00048308B4208D8B0F84A308B4204D90023EE
:102ED00000930123FFF789FF08BD80F892100329B2
:102EE00002D3012180F8921070478A4205D28342B2
:102EF00001D89A4203D9012070478342F9D80020B3
:102F0000704770B50D461E460446B0F84E10B0F836
:102F10004C00049BFFF7E9FF002808D0B4F84A10E2
:102F2000B4F8480033462A46BDE87040DDE770BD7E
:102F300030B511B30888401E84B2002006E04D6809
:102F400035F81050954203D0401C80B2A042F6D311
:102F5000A04212D28C68022202EB4002A25A34F83C
:102F6000100006E0CC6834F810409C4203D0401CAE
:102F700080B29042F6D3904201D3002030BD09695F
:102F8000085C30BD30B50020A1B14FF6FF7500BF21
:102F900031F81040AC420DD0944208D101EB40040E
:102FA00064889C4203D101EB4000007930BDC01C15
:102FB00080B2EDE7002030BDF0B502F00706012435
:102FC000B440002590F892E0E7B2DDF814C02C463A
:102FD000BEF1010F01D83D4600D03C46076822F003
:102FE0000702BCF1000F3F7C07FB02F7BAB2476B48
:102FF0003A44114409D108785B1E284360401B0401
:1030000001F8010B1B0CF6D1F0BD0A78761C2A439F
:103010006240A3F101030A7016F007069BB206D0C6
:103020006A06150E6206140E002BEED1F0BD428F1B
:10303000114490F89220012A03D800BF4FF00105F7
:10304000F2D04FF00104EFE7F0B5046801F0070794
:10305000059E257C8024FC406A4302EBD101426B33
:1030600089B21144BEB900BF90F89220012A06D857
:103070000A7822430A7090F89220012A02D00A7836
:1030800062400A70640801D18024491C5B1E1B0445
:103090001B0CE9D1F0BD90F89220012A06D80A78DD
:1030A00022430A7090F89220012A02D00A786240E6
:1030B0000A705B1E1B0429441B0CECD1F0BD000000
:1030C0000021A0F85010A0F854104FF6FF71A0F89E
:1030D0005210A0F85610016B4968084730B4029CA2
:1030E000A0F85010A0F85420A0F85230A0F8564094
:1030F000016B496830BC084770B504460025049848
:10310000A565E362616384F8382084F8395084F857
:103110006D5084F89150012184F8921084F8931036
:1031200020630168204688472046FFF7C9FF2046F4
:10313000FFF774FD84F8705070BD10B50163096825
:1031400004468847206B41682046BDE81040084788
:103150000FB410B504AA039900F06DFF10BC5DF820
:1031600014FBF0B590F838204FF6FF75036805EAB8
:10317000C2018187197C05EAC101418790F8394075
:1031800005EAC401C1875E7CA718B74201D9321B8A
:1031900092B205EAC20220F8401F11444180998A88
:1031A0008180D98AC180F0BD38B50446B0F8560098
:1031B0000090B4F85230B4F85420B4F850102046BF
:1031C000FFF79FFE18B3012084F88C00B4F8481074
:1031D000B4F85000814201D2A4F84800B4F84A1073
:1031E000B4F85200814201D9A4F84A00B4F84C1056
:1031F000B4F85400814201D2A4F84C00B4F84E1047
:10320000B4F85600814201D9A4F84E0038BD002020
:1032100084F88C0038BDA4E70021A0F84810B0F86D
:103220004410A0F84A10B0F84010A0F84C10B0F8C4
:103230004210A0F84E10B7E710B50446FFF791FF13
:103240002068818AA4F84610C08AA4F8440010BD02
:10325000B0F84010A0F84810B0F84210A0F84A109A
:103260000021A0F84C10B0F84610A0F84E109BE7D3
:1032700077E70021A0F84810B0F84420A0F84A20D1
:10328000A0F84C10B0F84610B0F84220914202D39A
:103290008A1AA0F84C20B0F84020891AA0F84E10E5
:1032A00082E710B50446FFF75CFF2068818AA4F826
:1032B0004610C08AA4F8440010BD0023A0F848308E
:1032C000B0F84410B0F84220914202D38A1AA0F814
:1032D0004820B0F84020891AA0F84A10A0F84C30D5
:1032E000B0F84610A0F84E105EE738B5049C009484
:1032F000FFF772FD38BD38B5B0F84450049C691A28
:1033000089B2E50705D0491E89B20094FFF764FD34
:1033100038BDC91AF8E738B5B0F84650049CAA1A67
:1033200092B2E50701D0D21A00E0521E92B2009488
:10333000FFF752FD38BD38B515460A46B0F84610BD
:10334000049C491B491E641CE4B289B2022C03D1BF
:10335000C91A491C89B200240094FFF73DFD38BD0D
:1033600038B5B0F84650049CAA1AB0F8445092B24E
:10337000691A89B214B1012C05D008E0521EC91A8D
:1033800092B289B203E0491ED21A89B292B2009475
:10339000FFF722FD38BD38B50C461146B0F8442081
:1033A000049D121B94B2641E2DB1A2B2002400949D
:1033B000FFF712FD38BDE21A521C92B20124F6E763
:1033C00038B50C46009313460546064A064901F0F7
:1033D0007EFD064B0122064928460094FFF78CFE2D
:1033E00038BD000001410008914E0008B92F0008C7
:1033F00032000020C1617047F0B5C4692578667855
:10340000A778E4787C43E4B28D4215D8B14213D852
:10341000491B01FB04314FF6FF7303EAC101091D8B
:103420008BB20021C469E45C54545B1C491CC9B2D2
:103430009BB20829F6D306E000210B465354491CE1
:10344000C9B20829FAD390F82300002807D0002039
:10345000115CC9431154401CC0B20828F8D3F0BD18
:103460002DE9FF4F8346C069894615468178C078AB
:1034700083B049442844CFB200F0FF0A00260DF182
:1034800004084C46334601AA58460699FFF7B4FF94
:1034900001232A4621465846CDF8008001F055FC0C
:1034A000761C641CE4B2F6B2BC42EBD36D1CEDB2E8
:1034B0005545E6D307B0BDE8F08F40EA001040F66E
:1034C0000F71084040EA800043F23331084040EA7F
:1034D000400045F25551084040EA400070472DE950
:1034E000F84F8846C16982469B468878C97808EBC0
:1034F0004000C7B202EB4100154600F0FF0900266C
:1035000044465B462A4621465046009600F05CF948
:10351000761CA41CE4B2F6B2BC42F2D3AD1CEDB2F0
:103520004D45EDD3BDE8F88F2DE9FF4F89B0C16956
:103530001446814688780A9AC978104400F0FF0A38
:1035400004EB4100C0B200260DF1040804AF0DF1F8
:10355000180B03900A9D4846334601AA0C99FFF7C1
:103560004BFF00224FEA0B0318F80200FFF7A5FFFC
:103570004FEA102C07F802C09854521CD2B2082A05
:10358000F2D30093012322462946484601F0DDFB91
:10359000601CC2B2012329464846009701F0D5FBC2
:1035A000761C6D1CEDB2F6B25545D4D3A41C03981D
:1035B000E4B28442CED30DB07DE7002180F826101E
:1035C0007047080001D00A2801D14FF6FF707047FC
:1035D00030B54FF6FF72A9B30A293FD090F82630D4
:1035E000541E7BB15B1E13F0FF0380F82630058C60
:1035F00001F03F0102EA851242EA010202842DD065
:10360000204630BDFC2905D3052280F8262001F094
:1036100001011FE0F82905D3042280F8262001F0DB
:10362000030117E0F02905D3032280F8262001F0DA
:1036300007010FE0E02906D3022280F8262001F0DE
:103640000F0107E00AE0C02906D3012280F82620F6
:1036500001F01F010184D3E7084630BD104630BD9C
:103660002DE9F05F0646C06900241D4690F80280EF
:1036700093460F4686F826404FF6FF794FF6FE7ABE
:10368000726829783046904748450ED06D1C5045E9
:10369000F6D0C3B25A4639463046FFF7E1FE07EB93
:1036A0000800641CC7B2E4B2EAE72046BDE8F09F18
:1036B00030B4AFF2F104446030BCD1E730B4AFF2C3
:1036C000EF04446030BCCBE72DE9F05F0646C069EB
:1036D00000241D468078934640060F464FEA106846
:1036E00086F826404FF6FF794FF6FE7A7268297801
:1036F0003046904748450ED06D1C5045F6D0C3B2B9
:103700005A4639463046FFF7EAFE07EB0800641CCC
:10371000C7B2E4B2EAE72046C8E730B4AFF25D14BE
:10372000446030BCD0E730B4AFF25B14446030BCCE
:10373000CAE72DE9F05F0646C06900241D4690F8EF
:10374000028093460F4686F826404FF6FF794FF6E3
:10375000FE7A726829783046904748450ED06D1C35
:103760005045F6D0C3B25A4639463046FFF7DCFE24
:1037700007EB0800641CC7B2E4B2EAE7204695E70D
:1037800030B4AFF2C114446030BCD2E730B4AFF211
:10379000BF14446030BCCCE7F0B500240D460646AB
:1037A00080F826404FF6FF774FF6FE7C29783046AA
:1037B000FFF70EFFB84205D06D1C6045F6D0641CC3
:1037C000E4B2F3E72046F0BD2DE9F04387B01C4694
:1037D00015468846814601AA21460E9BFFF70CFE3E
:1037E000002201AC03AE05AFA05CFFF766FE010A44
:1037F000B154B854521CD2B2082AF5D301A905A875
:1038000000F02EF801232A4641464846009401F074
:103810009CFA01A9381D00F023F808F10107F9B25C
:1038200001232A464846009401F08FFA01A903A813
:1038300000F016F86D1CEAB2012341464846009498
:1038400001F083FA01A9301D00F00AF8EAB2F9B2DA
:1038500001234846009401F078FA07B0BDE8F083F0
:103860000422037801F8013B10F8013B521E01F8D5
:10387000013B12F0FF02F4D17047000030B404693C
:103880000023A4460A4630BC2021604730B40469B6
:103890001346A4460A4630BC1721604713B50122DF
:1038A000046901AB1721A0471CBD30B40469002393
:1038B000A44630BC1A461821604730B4046900237E
:1038C000A44630BC1A4619216047012070472DE9F3
:1038D000F0470446006890461829027B02F001096F
:1038E000C9F1010A4FD004DC14293BD0172904D1B7
:1038F00006E0192955D020293FD00020BDE8F087E7
:103900001D462BE015F8017BA8F1010000F0FF082F
:103910000026380601D5012200E000224121204680
:1039200001F0AEFA7806070E52464021204601F01B
:10393000A7FA20682C218279204601F0A1FA4A4694
:103940004021204601F09CFA20682C21C2792046B3
:1039500001F096FA761CF6B2082EDAD3B8F1000F11
:10396000D0D11CE042784921204601F089FA206834
:103970004021007B00F0010201E042464A2120463E
:1039800001F07EFA0BE002784921204601F078FA36
:1039900020680023656982782C212046A8470120F1
:1039A000ACE7C278002365692C212046A84720682F
:1039B00049214278E3E72DE9F04190460446182971
:1039C00049D004DC142938D0172904D106E019297C
:1039D00050D020293AD00020BDE8F0811E4628E0D2
:1039E00016F8017BA8F1010000F0FF085FF0400528
:1039F00007F001022946204601F042FA6D1C7F08BB
:103A0000EDB2472DF4D920682C21827B204601F0AD
:103A100037FA01224821204601F032FA20682C2191
:103A2000C27B204601F02CFA00224821204601F0FA
:103A300027FAB8F1000FD3D11AE020684921427863
:103A4000204601F01DFA002248211DE05FF04A01E6
:103A500001F016FA0CE0206849210278204601F0B6
:103A60000FFA20680023656982782C212046A84738
:103A70000120B1E7206800236569C2782C21204627
:103A8000A8472068492142782046E1E72DE9F04126
:103A900090460446182948D004DC142937D0172949
:103AA00004D105E019294FD0202939D0002093E70F
:103AB0001E4628E016F8017BA8F1010000F0FF087F
:103AC0005FF0400507F001022946204601F0D8F9D1
:103AD0006D1C7F08EDB2472DF4D920682C21827B24
:103AE000204601F0CDF900224821204601F0C8F916
:103AF00020682C21C27B204601F0C2F90122482116
:103B0000204601F0BDF9B8F1000FD3D11AE02068CA
:103B100049214278204601F0B3F9012248211DE0F5
:103B20005FF04A0101F0ACF90CE02068492102780D
:103B3000204601F0A5F920680023656982782C21D0
:103B40002046A847012047E7206800236569C2781E
:103B50002C212046A8472068492142782046E1E7E9
:103B60002DE9F84F044600681646DFF850B4027B92
:103B7000182902F0010ACAF10102009252D004DCB5
:103B8000142941D0172904D106E0192957D020293A
:103B900045D00020BDE8F88F984632E098F80050F4
:103BA0009BF8000008B145F48075761E08F1010805
:103BB000F6B200274FF6FF79E80501D5012200E0B3
:103BC00000224121204601F05BF909EA4505402128
:103BD0002046009A01F054F920682C218279204671
:103BE00001F04EF952464021204601F049F9206883
:103BF0002C21C279204601F043F97F1CFFB2092F26
:103C0000DAD3002ECAD126E042784921204601F0BD
:103C100037F920684021007B00F0010218E08BF8A2
:103C2000006018E002784921204601F029F9206857
:103C30000023656982782C212046A8470BE0C278D2
:103C4000002365692C212046A84720684921427835
:103C5000204601F015F901209CE770B50C4601F0F3
:103C600001020546492101F00BF9640804F0010244
:103C70004E21284601F004F9C4F340022846BDE86D
:103C800070404F2101F0FCB82DE9F0419046044608
:103C9000182948D004DC142937D0172904D105E0AD
:103CA00019294BD020293AD0002095E61E4628E05D
:103CB00016F8017BA8F1010000F0FF085FF0400555
:103CC00007F001022946204601F0DAF86D1C7F0852
:103CD000EDB2472DF4D920682C21827B204601F0DB
:103CE000CFF801224821204601F0CAF820682C2193
:103CF000C27B204601F0C4F800224821204601F092
:103D0000BFF8B8F1000FD3D123E0206849214278F1
:103D1000204601F0B5F800224821204600E04A2163
:103D200001F0AEF815E01146FFF797FF2068002379
:103D3000656982782C212046A8470AE02068002384
:103D40006569C2782C212046A84741462046FFF7E6
:103D500084FF012040E62DE9F0474824DFF85C921B
:103D60001E4615468046182957D004DC14293CD03D
:103D7000172904D136E0192955D0202949D000202F
:103D8000BCE500BF6D1E16F8017BEDB25FF040048C
:103D900007F001022146404601F072F8641C7F08DA
:103DA000E4B2472CF4D9D8F800002C21827B40469D
:103DB00001F066F801224C4699F80110404601F0E6
:103DC0005FF8C8222C21404601F05AF8D8F80000CC
:103DD0002C21C27B404601F053F800226178404616
:103DE00001F04EF8002DCDD11DE0D8F8000049219A
:103DF0004278404601F044F800224821404601F054
:103E00003FF800224921404601F03AF889F8014084
:103E100009E04A2101F034F805E089F8014012B1C7
:103E2000492189F80110012068E570B50C46054666
:103E300001F0800100F0B0F804F04001284600F0E5
:103E4000ABF804F02001284600F0A6F804F01001B9
:103E5000284600F0A1F804F00801284600F09CF87C
:103E600004F00401284600F097F804F00201284607
:103E700000F092F804F00101284600F08DF8284681
:103E800000F082F8284600F06CF8284600F06EF842
:103E9000284600F079F8284600F063F82846BDE887
:103EA000704000F06DB870B516460446182924D04D
:103EB00004DC142914D0172904D105E019293DD0B8
:103EC00020294CD0002070BD1D4606E029782046F0
:103ED000FFF7ABFF761EF6B26D1C002EF6D13EE06A
:103EE00001224C2100F0CCFF01224D21204600F0A0
:103EF000C7FF204600F035F831E094F8250040B1C6
:103F0000204600F041F8204600F02BF8204600F053
:103F10002DF8204600F038F8204600F039F8204609
:103F200000F01FF8204600F02BF8012184F825103E
:103F3000204694F82410FFF778FF10E000F028F8EE
:103F4000204600F00EF8204600F010F8204600F061
:103F50001BF8204600F005F8002084F82500012019
:103F600070BD01684A7B2D2100F08ABF10B5044660
:103F700001224C2100F084FF2046BDE81040F0E70C
:103F800000224C2100F07CBF01224D2100F078BFBF
:103F900000224D2100F074BF10B5044611B1FFF7A7
:103FA000F3FF01E0FFF7F4FF2046FFF7DAFF2046BA
:103FB000FFF7DCFF2046BDE81040E1E73A000020B3
:103FC00030B4C4680023A4460A4630BC15216047BB
:103FD00030B4C4680023A4460A4630BC16216047AA
:103FE0002DE9F04117460C46054607E00023EE6830
:103FF0003A4616212846B047641EE4B2002CF5D19B
:104000000120BDE8F08130B4C4681346A4460A46D6
:1040100030BC1721604730B4C4680023A44630BCCC
:104020001A461821604730B4C4680023A44630BC47
:104030001A4619216047F8B515460C460646FFF7A3
:10404000EAFF19E015F8041B8DF8001020786128AC
:1040500004D0632806D064280DD107E03046FFF76E
:10406000B7FF08E03046FFF7ABFF04E06A460121E6
:104070003046FFF7C8FF641C20780028E2D13046A4
:10408000FFF7D1FFF8BD0FB410B504AA0399FFF7ED
:10409000D2FF10BC5DF814FBF8B50C464FEA0005E2
:1040A00014F8011B182924D00EDC152919D0162963
:1040B00017D0172923D120788DF800006A460121F6
:1040C0002846FFF7A0FF0AE0192912D0FE2916D1D1
:1040D00022788DF800202921284600F0D1FE641CAA
:1040E000DEE722788DF80020EE6800232846B047EE
:1040F000F5E70023EE681A462846B047D0E7F8BD3A
:1041000070B5A1F11404062C0ED2DFE804F0080308
:10411000030808081146FFF7C1FB012070BD0469C0
:10412000A446BDE870406047002070BD2DE9F04115
:104130000546A1F114001F4616460C4606281BD260
:10414000DFE800F01103030D111101212846FFF7EC
:1041500095FB31462846FFF7A1FB012051E70021DE
:104160002846FFF78BFB3B46324621462846D5F8CA
:1041700010C0BDE8F0416047002042E72DE9F04162
:104180000646A1F114001D46144606282ED2DFE88B
:1041900000F0270303122B2B01213046FFF76EFBA3
:1041A0003046FFF782FB21463046FFF777FB30466B
:1041B000FFF783FB18E000213046FFF75FFB0CE0C0
:1041C0003046FFF772FB29783046FFF767FB304631
:1041D000FFF773FB641EE4B26D1C002CF0D103E00A
:1041E000376922463046B84701200AE7002008E731
:1041F0002DE9F0410546A1F114001F4616460C4674
:1042000006281DD2DFE800F01303050F1313012168
:1042100000E000212846FFF731FB31462846FFF732
:104220003DFB0120EDE600212846FFF727FB3B463A
:10423000324621462846D5F810C0BDE8F041604717
:104240000020DEE62DE9F0410546A1F114001F46ED
:1042500016460C4606281BD2DFE800F01103030DBA
:10426000111100212846FFF709FB31462846FFF7C8
:1042700015FB0120C5E601212846FFF7FFFA3B4662
:10428000324621462846D5F810C0BDE8F0416047C7
:104290000020B6E62DE9F0410546A1F114001F46C5
:1042A00016460C4606281DD2DFE800F01303050F62
:1042B0001313002100E001212846FFF7DFFA314601
:1042C0002846FFF7EBFA01209BE601212846FFF77D
:1042D000D5FA3B46324621462846D5F810C0BDE8FF
:1042E000F041604700208CE62DE9F0410646A1F13F
:1042F000140015019846144602F0F00706286AD209
:10430000DFE800F062031A276262F8213046FFF707
:10431000C5FA01222C21304600F0B2FD3946304664
:10432000FFF7BCFA01222C21304600F0A9FDE9B2CA
:104330003046FFF7B3FA40E0F8213046FFF7AEFA17
:1043400039463046FFF7AAFAE9B23046FFF7A6FA37
:1043500038E0FA213046FFF7A1FA01222C2130463D
:1043600000F08EFD454615E0FE49082015F8012BAA
:1043700002F0F003120101F8013B401E01F8012B8D
:1043800010F0FF00F2D1083CE4B2F64A10213046AA
:10439000FFF77CFA082CE7D20DE02F78304607F0C3
:1043A000F001FFF77BFA3807010E3046FFF776FA87
:1043B000641EE4B26D1C002CEFD101222C2130468A
:1043C00000F05EFD01201CE6356922463046AC4611
:1043D000BDE8F0416047002013E670B50646A1F144
:1043E00014001446062833D2DFE800F02403031239
:1043F00022223046FFF759FA00213046FFF74EFAE5
:1044000021463046FFF74AFA3046FFF756FA0FE0EA
:104410001D4606E01821304600F012FA183CE4B2BE
:104420001835182C2A46F5D82146304600F008FAEF
:10443000012070BD96F82400FF2802D1782086F86C
:104440002400356922463046AC46BDE870406047DE
:10445000002070BD2DE9F041DFF80C8314460646BC
:10446000A1F11402002798F800001D46062A49D23F
:10447000DFE802F02F03161B3E4210B13046FFF773
:104480001CFA3046FFF711FA00213046FFF706FA12
:1044900021463046FFF702FA012088F8000029E0A3
:1044A00021463046FFF7FAF924E050B13046FFF7D5
:1044B00004FA06E01821304600F0C2F9183CE4B2D4
:1044C0001835182C2A46F5D82146304600F0B8F9A0
:1044D0000EE096F82400FF2802D1782086F8240008
:1044E00037692B4622463046BC46BDE8F04160475E
:1044F00088F80070012084E50028F9D03046FFF7E5
:10450000DCF9F5E700207CE570B50646A1F1140062
:104510001446062838D2DFE800F0290308172727B9
:104520003046FFF7C2F9002103E03046FFF7BDF93E
:1045300040213046FFF7B2F921463046FFF7AEF989
:104540003046FFF7BAF90FE01D4606E01821304665
:1045500000F076F9183CE4B21835182C2A46F5D844
:104560002146304600F06CF9012070BD96F8240019
:10457000FF2802D1782086F824003569224630468B
:10458000AC46BDE870406047002070BD2DE9F041A9
:104590000446A1F11400744F154606284BD2DFE8FB
:1045A00000F0330312174143787810B12046FFF72B
:1045B00084F92046FFF779F929462046FFF76EF97E
:1045C0000120787035E029462046FFF767F930E092
:1045D0001E4610E0182217212046B847183DEDB2BC
:1045E00020461836FFF769F92046FFF75EF90821E3
:1045F0002046FFF753F92769182D3346EAD82A4693
:1046000017212046B84714E094F82400FF2802D16F
:10461000602084F8240026692A462046B446BDE876
:10462000F04160470020CCE7787810B12046FFF7D2
:1046300044F90120E5E40020E3E42DE9F0470446D5
:10464000A1F1140000260127DFF81C8199461546C8
:10465000062865D2DFE800F04903031C575C98F890
:10466000020028B198F8030058B12046FFF725F959
:1046700094F8240000F0FC0084F824002046FFF7A2
:1046800014F929462046FFF709F988F802703CE042
:1046900098F8020028B198F8030060B92046FFF7A7
:1046A0000CF994F8240000F0FC00801C84F824002D
:1046B0002046FFF7FAF888F802704E460CE0182200
:1046C00017212046B847183DEDB220461836FFF7AF
:1046D000F4F82046FFF7E9F82769182D3346EED89D
:1046E0002A4617212046B8470FE094F82400FF28F7
:1046F00002D1702084F8240026692A462046B44658
:10470000BDE8F047604788F802600120BDE8F08707
:1047100098F802000028F6D02046FFF7CEF8F2E71E
:104720000020F3E72DE9F0470446A1F1140001262B
:104730000D4D994617464FF0000806287ED2DFE857
:1047400000F0630320387276287920B1687980B14F
:104750002046FFF7B2F894F8240000F0FC0084F83B
:10476000240003E01E0500203C0000202046FFF747
:104770009CF839462046FFF791F82E7185F80580A0
:1047800053E0287920B1687960B92046FFF795F8A1
:1047900094F8240000F0FC00801C84F824002046DB
:1047A000FFF783F839462046FFF778F82E716E71CF
:1047B0003BE0287920B1687960B92046FFF77DF8A1
:1047C00094F8240000F0FC00801C84F824002046AB
:1047D000FFF76BF82E716E714D460CE01822172111
:1047E0002046B047183FFFB220461835FFF765F85E
:1047F0002046FFF75AF82669182F2B46EED83A467E
:1048000017212046B04710E094F82400FF2802D179
:10481000782084F8240025693A462046AC46BDE855
:10482000F04760470AE085F8048001206EE72879A8
:104830000028F8D02046FFF740F8F4E7002065E7AD
:104840002DE9F04115460E460446FFF72EF84021AB
:104850002046FFF723F827692B46324617212046CA
:10486000B8472046BDE8F041FFF727B810B5CC089F
:104870005C4302EBC40201F00701105C01228A4094
:10488000104000D0012010BD594389B2114401EB02
:10489000D00100F0070209788020D040014201D108
:1048A000002070470120704770B5064614460D463B
:1048B00055A0A047F00000F03EFBA04753A0A04742
:1048C000E80000F038FBA047A446BDE870404FA0C8
:1048D00060472DE9F05F8A464FF6FF71994683469F
:1048E00001EACA0601EAC2070025DDF8288016E0C1
:1048F00000240DE053465A4629462046CC46E04760
:1049000008B143A000E043A041468847641CA4B21C
:10491000B442EFD33DA0414688476D1CADB2BD42C5
:10492000E6D3BDE8F09F70B5064614460D463AA0A2
:10493000A047F00000F0FFFAA04734A0A0473BA03A
:10494000A047E80000F0F7FAA04730A0A047A4462F
:10495000BDE870403AA060472DE9FF4F81B00020CC
:104960008DF801004FF6FF7102980E9C994601EAFE
:10497000C00A01EAC20B4FF00008002600252F46AE
:104980006806050EF01BDDE90123C01D80B241461B
:10499000CC46E04708B145F001057F1CFFB2082F67
:1049A000EED331A0A0472809C1B28DF80000092933
:1049B00001D8303000E057308DF800006846A0473D
:1049C00005F00F008DF80000092801D8303000E014
:1049D00057308DF800006846A0470836B6B25645F5
:1049E00002D222A0A047C9E708F101001FFA80F80F
:1049F000D84504D21DA0A04704A0A047BDE71CA035
:104A0000A04705B0BDE8F08F50310A000A00000051
:104A1000310000003000000023646566696E652087
:104A200078626D5F7769647468200000236465664E
:104A3000696E652078626D5F6865696768742000DB
:104A400073746174696320756E7369676E65642041
:104A5000636861722078626D5F626974735B5D2068
:104A60003D207B0A00000000307800002C00000090
:104A70007D3B0A002DE9F0411E46144605460B29F0
:104A800008D00D290ED00E291ED00F2927D00020C6
:104A9000BDE8F0811AB19049FFF7FEFA4AE08E496D
:104AA000491FF9E74AB18C490C31FFF7F5FA28683C
:104AB00090F8130085F822003CE08749491DFFF774
:104AC000EBFA2868807CF5E7FFF7A5FA81212846F4
:104AD000FFF776FA21462846FFF77AFA27E0FFF734
:104AE0009AFA707995F8221001EBC000C7B2402104
:104AF0002846FFF765FA102040EA17112846FFF70D
:104B00005FFA07F00F012846FFF762FAB07940F02C
:104B1000B0012846FFF75CFA30793268C006010E12
:104B20002846FFF770FA641E14F0FF04F4D12846FB
:104B3000FFF779FA0120ABE770B50C460546FFF7A1
:104B400099FF98B9092C0CD00A2C01D0002070BD17
:104B5000284600F0CAF8604928462131FFF79CFA40
:104B600004E05D492846EF3100F0BAF8012070BD3D
:104B700010B50446092921D00A2917D00D2903D0E0
:104B8000FFF778FF012010BD4AB153491A31FFF7F2
:104B900083FA206890F8130084F82200F2E74E4967
:104BA0001331FFF779FA2068807CF5E700F09DF873
:104BB000494920462131FFF76FFAE3E74649EF31D3
:104BC00000F08EF8DEE770B50C460546FFF752FFA1
:104BD00098B9092C0CD00A2C01D0002070BD2846B1
:104BE00000F083F83C4928465631FFF755FA04E0B7
:104BF00039492846EF3100F073F8012070BD70B5D7
:104C00000C460546FFF736FF98B9092C0CD00A2C44
:104C100001D0002070BD284600F067F82E492846D4
:104C20008B31FFF739FA04E02B492846EF3100F0C9
:104C300057F8012070BD70B50C460546FFF71AFF06
:104C400090B9092C0CD00A2C01D0002070BD284648
:104C500000F04BF8204928462131FFF71DFA03E008
:104C60001E49284600F03CF8012070BD70B50C4686
:104C70000546FFF7FFFE90B9092C0CD00A2C01D095
:104C8000002070BD284600F030F813492846563100
:104C9000FFF702FA03E01149284600F021F801204D
:104CA00070BD70B50C460546FFF7E4FE90B9092CBF
:104CB0000CD00A2C01D0002070BD284600F015F859
:104CC000064928464739FFF7E7F903E00349284634
:104CD00000F006F8012070BD355D00083C5E00085C
:104CE0000160897C80F82210704770B50023456907
:104CF00004461A462821A8470023E5681A461421CD
:104D00002046A84701224B21204600F0B9F8206830
:104D100029210279204600F0B3F800224B212046D9
:104D200000F0AEF8206829210279204600F0A8F8AA
:104D300001224B21204600F0A3F820682921427966
:104D40002046BDE8704000F09BB81CB58DF80510FA
:104D50008DF80620049C8DF80430009401228468AC
:104D60006B460F21A0471CBD30B484680023A446C5
:104D700030BC1A460921604770B5002345690446D6
:104D80001A462821A847E5682046AC46BDE8704091
:104D900000231A461421604730B484680023A446D7
:104DA00030BC1A460A21604730B484680023A44608
:104DB0000A4630BC0B21604730B484680023A44607
:104DC0000A4630BC0D21604730B484680023A446F5
:104DD0000A4630BC0E21604730B484680023A446E4
:104DE00030BC1A46102160477CB5044600208DF87F
:104DF000050001228DF80420009121684D7C8DF87A
:104E000006002068A6686B46027C0F212046B0474A
:104E10009DF80600401CC0B28DF80600A842F0D3F1
:104E20007CBD1CB50021009101916946FFF7DCFFB4
:104E30001CBD1CB510A2D2E90012CDE900126946D2
:104E4000FFF7D2FF1CBD1FB5002202920392036838
:104E50005B7C8B420ED98DF805208DF80610012160
:104E60008DF8041002A90091016884686B460A7CE1
:104E70000F21A0471FBD0000FFFFFFFFFFFFFFFF47
:104E800030B444690023A44630BC6047002070471A
:104E900010B5092902D00A2906D103E01449FFF709
:104EA0001FFF01E0FFF721FF012010BD002140F8A6
:104EB000081BAFF22702026042608260C260C176C6
:104EC00081770161FF21017780F8201070472DE97B
:104ED000F04115460E460446069FFFF7E7FF67615F
:104EE000A660C4E903532046BDE8F041FFF73CBF8C
:104EF000545E000830B5002242F210730A253024B7
:104F000003E0C91A641C89B2E4B29942F9D2B3FB36
:104F1000F5F38454521CD2B2052AF0D3002141711A
:104F200030BD10B5C1F10501CCB201460948FFF70B
:104F3000E1FF204410BD00B50521FFF7F2FF00E0BE
:104F4000401C01783029FBD011F0FF0F00D1401E2A
:104F500000BD00004200002008B501210420FCF73C
:104F600026F9A020ADF8000010208DF803000320E2
:104F70008DF8020069463248FBF72FFF08BD10B5D7
:104F80002F4B4D2936D00CDC2B2918D004DC2929D5
:104F900020D02A290ED114E02D291FD04C2909D167
:104FA00020E00022502933D0512931D052292FD06E
:104FB00053292DD0012180F82710012010BD00BFFA
:104FC000FBE700204FF4A07100BF401C80B2884274
:104FD000FAD3F2E70120FBF7E1FDEEE70520FBF74E
:104FE000C6FDEAE7012A03D0002AE6D1202106E027
:104FF000202109E0012A06D0002ADED180211846AE
:10500000FBF75BFFD9E780211846FBF754FFD4E795
:1050100080F82720D1E710B50446AFF29D03094A76
:105020000949FDF7A7FA2046FFF7B6FE0021204602
:10503000FFF7BAFE2046BDE81040FDF7A7B9000013
:1050400000080140A73E0008245D000870470000EA
:105050000FB41CB5074B06AA7B446946009005981F
:1050600000F025F90020694600F034F91CBC5DF819
:1050700014FB0000790200002DE9F0410E460446C1
:10508000002020622046E168884730B3252805D0FB
:10509000D4E901219047206A401CF2E7E1682046EC
:1050A00000278847050018D0A5F14100192802D82B
:1050B00020354FF400673246294620462760FBF72B
:1050C00071F840B1012804D0F61D26F00706083615
:1050D000D8E7361DD6E72846DAE7206ABDE8F08132
:1050E0002DE9F0410646002410687529314616A5C1
:1050F00010D0AFF30080002802DA404213A507E089
:1051000031688A0701D512A502E0490704D511A527
:10511000012401E0AFF3008000210A2206F12407F8
:1051200009E0B0FBF2FCB0FBF2F302FB1C003030F4
:1051300078541846491C0028F3D123462A463046A5
:10514000BDE8F04100F055B8000000002D0000005F
:105150002B000000200000004FF000020429C0F0E6
:10516000128010F0030C00F01B80CCF1040CBCF199
:10517000020F18BF00F8012BA8BF20F8022BA1EBEB
:105180000C0100F00DB85FEAC17C24BF00F8012BD0
:1051900000F8012B48BF00F8012B70474FF00002C8
:1051A00000B5134694469646203922BFA0E80C501D
:1051B000A0E80C50B1F12001BFF4F7AF090728BFF8
:1051C000A0E80C5048BF0CC05DF804EB890028BF74
:1051D00040F8042B08BF704748BF20F8022B11F09D
:1051E000804F18BF00F8012B704770477047704719
:1051F00070472DE9F0470D4699469246044600F166
:1052000024080168880604D5E06921F010012160B6
:1052100000E00120A84201DD471B00E00027A16952
:105220007A1902EB0900081AA0612078C00602D49E
:105230002046AFF30080002608E0D4E901211AF8E7
:1052400006009047206A401C761C20624E45F4DB25
:105250002078C0060AD52046AFF3008006E0D4E9E6
:10526000012130209047206A401C2062381EA7F19F
:105270000107F4DC07E0D4E9012118F805009047A4
:10528000206A401C2062281EA5F10105F3DC20469F
:10529000AFF300802078000602D50220BDE8F08739
:1052A0000120FBE701694A1C02610878704700B5DC
:1052B0008FB0CDE901310021059105497944CDE94F
:1052C000031011466846FFF7D7FE0FB000BD00007F
:1052D000E5FFFFFF0A6802F8010B0A607047754698
:1052E00000F02CF8AE4605006946534620F0070052
:1052F000854618B020B5FBF707FDBDE820404FF00C
:1053000000064FF000074FF000084FF0000B21F0AF
:105310000701AC46ACE8C009ACE8C009ACE8C0097C
:10532000ACE8C0098D46704710B50446AFF3008065
:105330002046BDE81040FAF747BF0000004870471C
:105340003005002034431010013443101001BF0019
:10535000030304040304050C0DFFFE08FE08FE0110
:1053600076034509B9200500CC09210882C4894B80
:105370008C002208336D8B884A0023128744BC4876
:105380003012324582919029128CC4002410A53C21
:10539000AB58252209314524915A080025198AC4A1
:1053A0001D914C228949122529224944128C4862B8
:1053B00021492C2601261188C42CA92428894A2396
:1053C0003291126522012706316D8A01280CA4B49E
:1053D000BA504822D2260B06290CA4B48A604C4944
:1053E0008B280D002A0B555CAB949449A610002B1A
:1053F0000A554CAB60A8140C012C0842B4098A046D
:10540000002D06135C8A012E0622C409022F0C848B
:10541000C4BAA45828168AC500300B85449B8984D9
:105420002F920900310984451BC9482F04320D858C
:10543000449B8984221389628701330E85449B89AA
:105440008422125228920900340C8544AB9588249A
:1054500032BA8906350C85448B8324C842914C00AE
:10546000360D85449B89844691B0482600370B84CD
:10547000448B432C140B6901380E85449B8984228C
:10548000994858241300390D85449B89844542A3CB
:105490004826003A0752C40912013B0872B40912A7
:1054A00045023C0856CC4B91B2023D0735548B6AFD
:1054B000013E0956CC0BB19222003F0D85449B89D9
:1054C0009A481407C944004014A93CBDA14C148D4E
:1054D0008428FA49228A43E420120041108943CCEF
:1054E00038603C0D0943B253503222421087440CBD
:1054F000938A485252114944870800430E8744ACAE
:10550000491A71AA1809862800441288C40C9B2CD9
:105510002493C82432894C228B9800450F86C40BF3
:105520008B282209912421514474461086C40B8B88
:1055300028228A48422449484602470F8744AC49FA
:105540001A712AAA4962A24900481189440D0A45E4
:105550002692894E32914C249330490984C40A8A98
:10556000482F044A0C86C42B9A5045979068044BE8
:105570001189C40C925A4C1494448B22990A6900E4
:105580004C0B86C40B9A50A788E8004D198B440E2B
:105590001A65368A4822A28824228A4822A290527A
:1055A000486522214E1488C40CD944161A8528A1B6
:1055B0000829348A496611004F0D8744AC598A8CFA
:1055C0009B24161B01500F87440C938A4822929407
:1055D000A4421A005114983CAC612C2493C8243284
:1055E0000945241152A21200520D88C40C9B48A7F1
:1055F000584DA48532530C86C49B255AB1469A4C0B
:1056000000540C86C48B8B9690501B050055138854
:10561000C40CCA44169285642159481692C54800A4
:10562000561288C40CCA441692C52441495012151A
:10563000CB0057198B440E8A6422128594429288BB
:10564000242489486293A14C281301581188C40C62
:10565000CA44169A04C7C3C828269910591088C48A
:105660000CCA441693042551B12A09005A0A86C46B
:105670008B9B6CB44D765B08A3348A8A7E195C0CD4
:1056800084C48A5830168C0563015D08A3348A8966
:105690007E295E0B6554AB606C144993055F06165A
:1056A000340B03600723740A9100610854C48A997B
:1056B0008462620D86C40BA116C984449A4C0063AF
:1056C0000B55449B8968268A4C00640B86C4BBA199
:1056D000CA8965A200650955449B89E42024660DAA
:1056E00085C4AA89242222C9942800670C8634CB59
:1056F000D048A26966BB00680B86C40BA116C9849A
:10570000C424690A84C41A9174A485006A0AA3B4E3
:105710001AB5892E14006B0C86440BA11609892436
:1057200051196C0884C48A91BE106D0E5AC40D893B
:1057300048B24212914424056E0A56C40B89644251
:1057400062126F0A56C41B8A88494201700D76B4F2
:105750000B896442225D843300710F77B49B8A48C1
:105760002292484612A99000720954C40AC94909F4
:1057700000730854C49A12A902740973449A88A445
:10578000A224750956C40B11978902760C56C48B56
:10579000894A4812138A00770F59448D892E21892E
:1057A0002426114A4400780B56C48B894A4C165162
:1057B00019790E76B48B894A4812138A6642007AA8
:1057C0000955440B8B48C9007B0BA4B42A89484572
:1057D00026D2267C0781468B43007D0CA4B40A990F
:1057E000484D22D222027E0826DC9B896402A00555
:1057F00000CC09A10882B4095AE400A20E753CCB82
:10580000882522894C22A31800A30F87442C9228B4
:1058100024B4096592CB0400A40F574C8CC824A271
:1058200024114924914900A51088C40CCA44169338
:1058300004254269514A02A60781468B0901A70E39
:10584000A4B41AD24C12A14464230A00A8082374F9
:105850008A882400A91388C42C5A30129A4842110D
:10586000495034498C9100AA0863540A592536AB33
:105870000B56C4AB140945241125AC0735548B6273
:1058800002AD06135C8A01AE1488C42C5A3012A1F2
:10589000484211C948129124C64800AF0614F40AC0
:1058A00002B00943649A14490A00B109554CAB503F
:1058B000290E28B20843E49949CA00B30843E48991
:1058C000496C02B40723741A0A00B50A76B40B11A6
:1058D000170B5108B61187449CC32442094D82918D
:1058E0006024188915B70622DC0902B80732358A08
:1058F000D000B90843E499882832BA0A64D41A4916
:1059000048149112BB0E56C48B504822925024A1C9
:105910001000BC1388C49C584896149B8443C188CB
:105920002C428A4500BD1288C49C584896149B841A
:1059300043B248522C6900BE1388C48C512C3112DA
:10594000138543C1882C428A4500BF0D85342B99AD
:105950001C145293482600C014B9432C39448E16A7
:10596000078CA7216148760A4A4604C113B9435CF3
:10597000B11C290E184F43C290EC14948C08C21429
:10598000B943BCA9448E12078CA7216148760A4A04
:105990004604C315B9433C493022478A03C6D39015
:1059A00030243B05252302C415B943BC48381247AF
:1059B0008A03C6D39030243B05252302C515B9437D
:1059C0003C71282C87C401E3694818929D8292118A
:1059D00001C6168AC4AD432C228A4524B110AD12EB
:1059E0008A89223111C500C710A734AC491A71AA9F
:1059F00018098688511900C812B6C41BA91C621167
:105A00004524219224248A880EC911B6C43B758886
:105A10004514918448929028223ACA12B6C4AB9198
:105A2000446C114524219224248A880ECB14B6C4D8
:105A3000AB482C1207584411498824098922A20333
:105A4000CC0BB4C40A999422D20B01CD0BB4C42A56
:105A5000899422D20B01CE0CB5C49A892A49A62773
:105A60000A00CF0AB4C49A1C2922BD10D01188C4E0
:105A70000C9B2C24334964129944163101D118B877
:105A8000C43C492C2287C926B2D02844094548A1E4
:105A9000514C328B00D210B7442CB11C384B917151
:105AA00093C4622300D310B7443CA11C3A4B9171BC
:105AB00093C4622300D411B744AC99440E9BA5C88B
:105AC000B84962B11100D512B7442C49282207CE3B
:105AD0005264DC24B1D80800D612B744AC48301266
